{
  "_format": "hh-sol-artifact-1",
  "contractName": "DataCoinFactory",
  "sourceName": "contracts/DataCoinFactory.sol",
  "abi": [
    {
      "inputs": [
        {
          "internalType": "address",
          "name": "_platform",
          "type": "address"
        }
      ],
      "stateMutability": "nonpayable",
      "type": "constructor"
    },
    {
      "anonymous": false,
      "inputs": [
        {
          "indexed": true,
          "internalType": "address",
          "name": "creator",
          "type": "address"
        },
        {
          "indexed": true,
          "internalType": "address",
          "name": "dataCoinAddress",
          "type": "address"
        },
        {
          "indexed": true,
          "internalType": "address",
          "name": "bondingCurveAddress",
          "type": "address"
        },
        {
          "indexed": false,
          "internalType": "string",
          "name": "symbol",
          "type": "string"
        },
        {
          "indexed": false,
          "internalType": "string",
          "name": "cid",
          "type": "string"
        }
      ],
      "name": "DataCoinCreated",
      "type": "event"
    },
    {
      "inputs": [
        {
          "internalType": "string",
          "name": "name_",
          "type": "string"
        },
        {
          "internalType": "string",
          "name": "symbol_",
          "type": "string"
        },
        {
          "internalType": "uint256",
          "name": "totalSupply_",
          "type": "uint256"
        },
        {
          "internalType": "uint256",
          "name": "",
          "type": "uint256"
        },
        {
          "internalType": "string",
          "name": "metadataCid_",
          "type": "string"
        }
      ],
      "name": "createDataCoin",
      "outputs": [
        {
          "internalType": "address",
          "name": "",
          "type": "address"
        },
        {
          "internalType": "address",
          "name": "",
          "type": "address"
        }
      ],
      "stateMutability": "nonpayable",
      "type": "function"
    },
    {
      "inputs": [],
      "name": "platformAddress",
      "outputs": [
        {
          "internalType": "address",
          "name": "",
          "type": "address"
        }
      ],
      "stateMutability": "view",
      "type": "function"
    }
  ],
  "bytecode": "0x608060405234801561001057600080fd5b50604051613f8c380380613f8c833981810160405281019061003291906100db565b806000806101000a81548173ffffffffffffffffffffffffffffffffffffffff021916908373ffffffffffffffffffffffffffffffffffffffff16021790555050610108565b600080fd5b600073ffffffffffffffffffffffffffffffffffffffff82169050919050565b60006100a88261007d565b9050919050565b6100b88161009d565b81146100c357600080fd5b50565b6000815190506100d5816100af565b92915050565b6000602082840312156100f1576100f0610078565b5b60006100ff848285016100c6565b91505092915050565b613e75806101176000396000f3fe60806040523480156200001157600080fd5b50600436106200003a5760003560e01c80639a853086146200003f578063dbe55e561462000076575b600080fd5b6200005d6004803603810190620000579190620003c4565b62000098565b6040516200006d929190620004ee565b60405180910390f35b62000080620001d3565b6040516200008f91906200051b565b60405180910390f35b60008060008787873387604051620000b090620001f7565b620000c0959493929190620005d2565b604051809103906000f080158015620000dd573d6000803e3d6000fd5b5090506000813360008054906101000a900473ffffffffffffffffffffffffffffffffffffffff16604051620001139062000205565b620001219392919062000644565b604051809103906000f0801580156200013e573d6000803e3d6000fd5b5090508073ffffffffffffffffffffffffffffffffffffffff168273ffffffffffffffffffffffffffffffffffffffff163373ffffffffffffffffffffffffffffffffffffffff167fa79ab011fd00aa8a493fdf3de282bb1d62b1bf2fef8819cf4236e0e317fa1c8c8b89604051620001b992919062000681565b60405180910390a481819350935050509550959350505050565b60008054906101000a900473ffffffffffffffffffffffffffffffffffffffff1681565b6123a980620006bd83390190565b6113da8062002a6683390190565b6000604051905090565b600080fd5b600080fd5b600080fd5b600080fd5b6000601f19601f8301169050919050565b7f4e487b7100000000000000000000000000000000000000000000000000000000600052604160045260246000fd5b6200027c8262000231565b810181811067ffffffffffffffff821117156200029e576200029d62000242565b5b80604052505050565b6000620002b362000213565b9050620002c1828262000271565b919050565b600067ffffffffffffffff821115620002e457620002e362000242565b5b620002ef8262000231565b9050602081019050919050565b82818337600083830152505050565b6000620003226200031c84620002c6565b620002a7565b9050828152602081018484840111156200034157620003406200022c565b5b6200034e848285620002fc565b509392505050565b600082601f8301126200036e576200036d62000227565b5b8135620003808482602086016200030b565b91505092915050565b6000819050919050565b6200039e8162000389565b8114620003aa57600080fd5b50565b600081359050620003be8162000393565b92915050565b600080600080600060a08688031215620003e357620003e26200021d565b5b600086013567ffffffffffffffff81111562000404576200040362000222565b5b620004128882890162000356565b955050602086013567ffffffffffffffff81111562000436576200043562000222565b5b620004448882890162000356565b94505060406200045788828901620003ad565b93505060606200046a88828901620003ad565b925050608086013567ffffffffffffffff8111156200048e576200048d62000222565b5b6200049c8882890162000356565b9150509295509295909350565b600073ffffffffffffffffffffffffffffffffffffffff82169050919050565b6000620004d682620004a9565b9050919050565b620004e881620004c9565b82525050565b6000604082019050620005056000830185620004dd565b620005146020830184620004dd565b9392505050565b6000602082019050620005326000830184620004dd565b92915050565b600081519050919050565b600082825260208201905092915050565b60005b838110156200057457808201518184015260208101905062000557565b60008484015250505050565b60006200058d8262000538565b62000599818562000543565b9350620005ab81856020860162000554565b620005b68162000231565b840191505092915050565b620005cc8162000389565b82525050565b600060a0820190508181036000830152620005ee818862000580565b9050818103602083015262000604818762000580565b9050620006156040830186620005c1565b620006246060830185620004dd565b818103608083015262000638818462000580565b90509695505050505050565b60006060820190506200065b6000830186620004dd565b6200066a6020830185620004dd565b620006796040830184620004dd565b949350505050565b600060408201905081810360008301526200069d818562000580565b90508181036020830152620006b3818462000580565b9050939250505056fe60806040523480156200001157600080fd5b50604051620023a9380380620023a9833981810160405281019062000037919062000484565b848481600390816200004a9190620007aa565b5080600490816200005c9190620007aa565b50505081600560006101000a81548173ffffffffffffffffffffffffffffffffffffffff021916908373ffffffffffffffffffffffffffffffffffffffff1602179055508060069081620000b19190620007aa565b506000831115620000cf57620000ce8284620000da60201b60201c565b5b5050505050620009ac565b600073ffffffffffffffffffffffffffffffffffffffff168273ffffffffffffffffffffffffffffffffffffffff16036200014c576040517f08c379a00000000000000000000000000000000000000000000000000000000081526004016200014390620008f2565b60405180910390fd5b62000160600083836200024760201b60201c565b806002600082825462000174919062000943565b92505081905550806000808473ffffffffffffffffffffffffffffffffffffffff1673ffffffffffffffffffffffffffffffffffffffff168152602001908152602001600020600082825401925050819055508173ffffffffffffffffffffffffffffffffffffffff16600073ffffffffffffffffffffffffffffffffffffffff167fddf252ad1be2c89b69c2b068fc378daa952ba7f163c4a11628f55a4df523b3ef836040516200022791906200098f565b60405180910390a362000243600083836200024c60201b60201c565b5050565b505050565b505050565b6000604051905090565b600080fd5b600080fd5b600080fd5b600080fd5b6000601f19601f8301169050919050565b7f4e487b7100000000000000000000000000000000000000000000000000000000600052604160045260246000fd5b620002ba826200026f565b810181811067ffffffffffffffff82111715620002dc57620002db62000280565b5b80604052505050565b6000620002f162000251565b9050620002ff8282620002af565b919050565b600067ffffffffffffffff82111562000322576200032162000280565b5b6200032d826200026f565b9050602081019050919050565b60005b838110156200035a5780820151818401526020810190506200033d565b60008484015250505050565b60006200037d620003778462000304565b620002e5565b9050828152602081018484840111156200039c576200039b6200026a565b5b620003a98482856200033a565b509392505050565b600082601f830112620003c957620003c862000265565b5b8151620003db84826020860162000366565b91505092915050565b6000819050919050565b620003f981620003e4565b81146200040557600080fd5b50565b6000815190506200041981620003ee565b92915050565b600073ffffffffffffffffffffffffffffffffffffffff82169050919050565b60006200044c826200041f565b9050919050565b6200045e816200043f565b81146200046a57600080fd5b50565b6000815190506200047e8162000453565b92915050565b600080600080600060a08688031215620004a357620004a26200025b565b5b600086015167ffffffffffffffff811115620004c457620004c362000260565b5b620004d288828901620003b1565b955050602086015167ffffffffffffffff811115620004f657620004f562000260565b5b6200050488828901620003b1565b9450506040620005178882890162000408565b93505060606200052a888289016200046d565b925050608086015167ffffffffffffffff8111156200054e576200054d62000260565b5b6200055c88828901620003b1565b9150509295509295909350565b600081519050919050565b7f4e487b7100000000000000000000000000000000000000000000000000000000600052602260045260246000fd5b60006002820490506001821680620005bc57607f821691505b602082108103620005d257620005d162000574565b5b50919050565b60008190508160005260206000209050919050565b60006020601f8301049050919050565b600082821b905092915050565b6000600883026200063c7fffffffffffffffffffffffffffffffffffffffffffffffffffffffffffffffff82620005fd565b620006488683620005fd565b95508019841693508086168417925050509392505050565b6000819050919050565b60006200068b620006856200067f84620003e4565b62000660565b620003e4565b9050919050565b6000819050919050565b620006a7836200066a565b620006bf620006b68262000692565b8484546200060a565b825550505050565b600090565b620006d6620006c7565b620006e38184846200069c565b505050565b5b818110156200070b57620006ff600082620006cc565b600181019050620006e9565b5050565b601f8211156200075a576200072481620005d8565b6200072f84620005ed565b810160208510156200073f578190505b620007576200074e85620005ed565b830182620006e8565b50505b505050565b600082821c905092915050565b60006200077f600019846008026200075f565b1980831691505092915050565b60006200079a83836200076c565b9150826002028217905092915050565b620007b58262000569565b67ffffffffffffffff811115620007d157620007d062000280565b5b620007dd8254620005a3565b620007ea8282856200070f565b600060209050601f8311600181146200082257600084156200080d578287015190505b6200081985826200078c565b86555062000889565b601f1984166200083286620005d8565b60005b828110156200085c5784890151825560018201915060208501945060208101905062000835565b868310156200087c578489015162000878601f8916826200076c565b8355505b6001600288020188555050505b505050505050565b600082825260208201905092915050565b7f45524332303a206d696e7420746f20746865207a65726f206164647265737300600082015250565b6000620008da601f8362000891565b9150620008e782620008a2565b602082019050919050565b600060208201905081810360008301526200090d81620008cb565b9050919050565b7f4e487b7100000000000000000000000000000000000000000000000000000000600052601160045260246000fd5b60006200095082620003e4565b91506200095d83620003e4565b925082820190508082111562000978576200097762000914565b5b92915050565b6200098981620003e4565b82525050565b6000602082019050620009a660008301846200097e565b92915050565b6119ed80620009bc6000396000f3fe608060405234801561001057600080fd5b50600436106101005760003560e01c8063395093511161009757806395d89b411161006657806395d89b411461029d578063a457c2d7146102bb578063a9059cbb146102eb578063dd62ed3e1461031b57610100565b8063395093511461020557806340c10f191461023557806342966c681461025157806370a082311461026d57610100565b806318160ddd116100d357806318160ddd1461018f57806323b872dd146101ad578063250746f7146101dd578063313ce567146101e757610100565b806302d05d3f1461010557806306fdde0314610123578063095ea7b31461014157806312f741b614610171575b600080fd5b61010d61034b565b60405161011a9190611028565b60405180910390f35b61012b610371565b60405161013891906110d3565b60405180910390f35b61015b6004803603810190610156919061115c565b610403565b60405161016891906111b7565b60405180910390f35b610179610426565b60405161018691906110d3565b60405180910390f35b6101976104b4565b6040516101a491906111e1565b60405180910390f35b6101c760048036038101906101c291906111fc565b6104be565b6040516101d491906111b7565b60405180910390f35b6101e56104ed565b005b6101ef610501565b6040516101fc919061126b565b60405180910390f35b61021f600480360381019061021a919061115c565b61050a565b60405161022c91906111b7565b60405180910390f35b61024f600480360381019061024a919061115c565b610541565b005b61026b60048036038101906102669190611286565b6105df565b005b610287600480360381019061028291906112b3565b6105ec565b60405161029491906111e1565b60405180910390f35b6102a5610634565b6040516102b291906110d3565b60405180910390f35b6102d560048036038101906102d0919061115c565b6106c6565b6040516102e291906111b7565b60405180910390f35b6103056004803603810190610300919061115c565b61073d565b60405161031291906111b7565b60405180910390f35b610335600480360381019061033091906112e0565b610760565b60405161034291906111e1565b60405180910390f35b600560009054906101000a900473ffffffffffffffffffffffffffffffffffffffff1681565b6060600380546103809061134f565b80601f01602080910402602001604051908101604052809291908181526020018280546103ac9061134f565b80156103f95780601f106103ce576101008083540402835291602001916103f9565b820191906000526020600020905b8154815290600101906020018083116103dc57829003601f168201915b5050505050905090565b60008061040e6107e7565b905061041b8185856107ef565b600191505092915050565b600680546104339061134f565b80601f016020809104026020016040519081016040528092919081815260200182805461045f9061134f565b80156104ac5780601f10610481576101008083540402835291602001916104ac565b820191906000526020600020905b81548152906001019060200180831161048f57829003601f168201915b505050505081565b6000600254905090565b6000806104c96107e7565b90506104d68582856109b8565b6104e1858585610a44565b60019150509392505050565b6104ff336104fa336105ec565b610cba565b565b60006012905090565b6000806105156107e7565b90506105368185856105278589610760565b61053191906113af565b6107ef565b600191505092915050565b600560009054906101000a900473ffffffffffffffffffffffffffffffffffffffff1673ffffffffffffffffffffffffffffffffffffffff163373ffffffffffffffffffffffffffffffffffffffff16146105d1576040517f08c379a00000000000000000000000000000000000000000000000000000000081526004016105c89061142f565b60405180910390fd5b6105db8282610e87565b5050565b6105e93382610cba565b50565b60008060008373ffffffffffffffffffffffffffffffffffffffff1673ffffffffffffffffffffffffffffffffffffffff168152602001908152602001600020549050919050565b6060600480546106439061134f565b80601f016020809104026020016040519081016040528092919081815260200182805461066f9061134f565b80156106bc5780601f10610691576101008083540402835291602001916106bc565b820191906000526020600020905b81548152906001019060200180831161069f57829003601f168201915b5050505050905090565b6000806106d16107e7565b905060006106df8286610760565b905083811015610724576040517f08c379a000000000000000000000000000000000000000000000000000000000815260040161071b906114c1565b60405180910390fd5b61073182868684036107ef565b60019250505092915050565b6000806107486107e7565b9050610755818585610a44565b600191505092915050565b6000600160008473ffffffffffffffffffffffffffffffffffffffff1673ffffffffffffffffffffffffffffffffffffffff16815260200190815260200160002060008373ffffffffffffffffffffffffffffffffffffffff1673ffffffffffffffffffffffffffffffffffffffff16815260200190815260200160002054905092915050565b600033905090565b600073ffffffffffffffffffffffffffffffffffffffff168373ffffffffffffffffffffffffffffffffffffffff160361085e576040517f08c379a000000000000000000000000000000000000000000000000000000000815260040161085590611553565b60405180910390fd5b600073ffffffffffffffffffffffffffffffffffffffff168273ffffffffffffffffffffffffffffffffffffffff16036108cd576040517f08c379a00000000000000000000000000000000000000000000000000000000081526004016108c4906115e5565b60405180910390fd5b80600160008573ffffffffffffffffffffffffffffffffffffffff1673ffffffffffffffffffffffffffffffffffffffff16815260200190815260200160002060008473ffffffffffffffffffffffffffffffffffffffff1673ffffffffffffffffffffffffffffffffffffffff168152602001908152602001600020819055508173ffffffffffffffffffffffffffffffffffffffff168373ffffffffffffffffffffffffffffffffffffffff167f8c5be1e5ebec7d5bd14f71427d1e84f3dd0314c0f7b2291e5b200ac8c7c3b925836040516109ab91906111e1565b60405180910390a3505050565b60006109c48484610760565b90507fffffffffffffffffffffffffffffffffffffffffffffffffffffffffffffffff8114610a3e5781811015610a30576040517f08c379a0000000000000000000000000000000000000000000000000000000008152600401610a2790611651565b60405180910390fd5b610a3d84848484036107ef565b5b50505050565b600073ffffffffffffffffffffffffffffffffffffffff168373ffffffffffffffffffffffffffffffffffffffff1603610ab3576040517f08c379a0000000000000000000000000000000000000000000000000000000008152600401610aaa906116e3565b60405180910390fd5b600073ffffffffffffffffffffffffffffffffffffffff168273ffffffffffffffffffffffffffffffffffffffff1603610b22576040517f08c379a0000000000000000000000000000000000000000000000000000000008152600401610b1990611775565b60405180910390fd5b610b2d838383610fdd565b60008060008573ffffffffffffffffffffffffffffffffffffffff1673ffffffffffffffffffffffffffffffffffffffff16815260200190815260200160002054905081811015610bb3576040517f08c379a0000000000000000000000000000000000000000000000000000000008152600401610baa90611807565b60405180910390fd5b8181036000808673ffffffffffffffffffffffffffffffffffffffff1673ffffffffffffffffffffffffffffffffffffffff16815260200190815260200160002081905550816000808573ffffffffffffffffffffffffffffffffffffffff1673ffffffffffffffffffffffffffffffffffffffff168152602001908152602001600020600082825401925050819055508273ffffffffffffffffffffffffffffffffffffffff168473ffffffffffffffffffffffffffffffffffffffff167fddf252ad1be2c89b69c2b068fc378daa952ba7f163c4a11628f55a4df523b3ef84604051610ca191906111e1565b60405180910390a3610cb4848484610fe2565b50505050565b600073ffffffffffffffffffffffffffffffffffffffff168273ffffffffffffffffffffffffffffffffffffffff1603610d29576040517f08c379a0000000000000000000000000000000000000000000000000000000008152600401610d2090611899565b60405180910390fd5b610d3582600083610fdd565b60008060008473ffffffffffffffffffffffffffffffffffffffff1673ffffffffffffffffffffffffffffffffffffffff16815260200190815260200160002054905081811015610dbb576040517f08c379a0000000000000000000000000000000000000000000000000000000008152600401610db29061192b565b60405180910390fd5b8181036000808573ffffffffffffffffffffffffffffffffffffffff1673ffffffffffffffffffffffffffffffffffffffff1681526020019081526020016000208190555081600260008282540392505081905550600073ffffffffffffffffffffffffffffffffffffffff168373ffffffffffffffffffffffffffffffffffffffff167fddf252ad1be2c89b69c2b068fc378daa952ba7f163c4a11628f55a4df523b3ef84604051610e6e91906111e1565b60405180910390a3610e8283600084610fe2565b505050565b600073ffffffffffffffffffffffffffffffffffffffff168273ffffffffffffffffffffffffffffffffffffffff1603610ef6576040517f08c379a0000000000000000000000000000000000000000000000000000000008152600401610eed90611997565b60405180910390fd5b610f0260008383610fdd565b8060026000828254610f1491906113af565b92505081905550806000808473ffffffffffffffffffffffffffffffffffffffff1673ffffffffffffffffffffffffffffffffffffffff168152602001908152602001600020600082825401925050819055508173ffffffffffffffffffffffffffffffffffffffff16600073ffffffffffffffffffffffffffffffffffffffff167fddf252ad1be2c89b69c2b068fc378daa952ba7f163c4a11628f55a4df523b3ef83604051610fc591906111e1565b60405180910390a3610fd960008383610fe2565b5050565b505050565b505050565b600073ffffffffffffffffffffffffffffffffffffffff82169050919050565b600061101282610fe7565b9050919050565b61102281611007565b82525050565b600060208201905061103d6000830184611019565b92915050565b600081519050919050565b600082825260208201905092915050565b60005b8381101561107d578082015181840152602081019050611062565b60008484015250505050565b6000601f19601f8301169050919050565b60006110a582611043565b6110af818561104e565b93506110bf81856020860161105f565b6110c881611089565b840191505092915050565b600060208201905081810360008301526110ed818461109a565b905092915050565b600080fd5b61110381611007565b811461110e57600080fd5b50565b600081359050611120816110fa565b92915050565b6000819050919050565b61113981611126565b811461114457600080fd5b50565b60008135905061115681611130565b92915050565b60008060408385031215611173576111726110f5565b5b600061118185828601611111565b925050602061119285828601611147565b9150509250929050565b60008115159050919050565b6111b18161119c565b82525050565b60006020820190506111cc60008301846111a8565b92915050565b6111db81611126565b82525050565b60006020820190506111f660008301846111d2565b92915050565b600080600060608486031215611215576112146110f5565b5b600061122386828701611111565b935050602061123486828701611111565b925050604061124586828701611147565b9150509250925092565b600060ff82169050919050565b6112658161124f565b82525050565b6000602082019050611280600083018461125c565b92915050565b60006020828403121561129c5761129b6110f5565b5b60006112aa84828501611147565b91505092915050565b6000602082840312156112c9576112c86110f5565b5b60006112d784828501611111565b91505092915050565b600080604083850312156112f7576112f66110f5565b5b600061130585828601611111565b925050602061131685828601611111565b9150509250929050565b7f4e487b7100000000000000000000000000000000000000000000000000000000600052602260045260246000fd5b6000600282049050600182168061136757607f821691505b60208210810361137a57611379611320565b5b50919050565b7f4e487b7100000000000000000000000000000000000000000000000000000000600052601160045260246000fd5b60006113ba82611126565b91506113c583611126565b92508282019050808211156113dd576113dc611380565b5b92915050565b7f4f6e6c792063726561746f722063616e206d696e740000000000000000000000600082015250565b600061141960158361104e565b9150611424826113e3565b602082019050919050565b600060208201905081810360008301526114488161140c565b9050919050565b7f45524332303a2064656372656173656420616c6c6f77616e63652062656c6f7760008201527f207a65726f000000000000000000000000000000000000000000000000000000602082015250565b60006114ab60258361104e565b91506114b68261144f565b604082019050919050565b600060208201905081810360008301526114da8161149e565b9050919050565b7f45524332303a20617070726f76652066726f6d20746865207a65726f2061646460008201527f7265737300000000000000000000000000000000000000000000000000000000602082015250565b600061153d60248361104e565b9150611548826114e1565b604082019050919050565b6000602082019050818103600083015261156c81611530565b9050919050565b7f45524332303a20617070726f766520746f20746865207a65726f20616464726560008201527f7373000000000000000000000000000000000000000000000000000000000000602082015250565b60006115cf60228361104e565b91506115da82611573565b604082019050919050565b600060208201905081810360008301526115fe816115c2565b9050919050565b7f45524332303a20696e73756666696369656e7420616c6c6f77616e6365000000600082015250565b600061163b601d8361104e565b915061164682611605565b602082019050919050565b6000602082019050818103600083015261166a8161162e565b9050919050565b7f45524332303a207472616e736665722066726f6d20746865207a65726f20616460008201527f6472657373000000000000000000000000000000000000000000000000000000602082015250565b60006116cd60258361104e565b91506116d882611671565b604082019050919050565b600060208201905081810360008301526116fc816116c0565b9050919050565b7f45524332303a207472616e7366657220746f20746865207a65726f206164647260008201527f6573730000000000000000000000000000000000000000000000000000000000602082015250565b600061175f60238361104e565b915061176a82611703565b604082019050919050565b6000602082019050818103600083015261178e81611752565b9050919050565b7f45524332303a207472616e7366657220616d6f756e742065786365656473206260008201527f616c616e63650000000000000000000000000000000000000000000000000000602082015250565b60006117f160268361104e565b91506117fc82611795565b604082019050919050565b60006020820190508181036000830152611820816117e4565b9050919050565b7f45524332303a206275726e2066726f6d20746865207a65726f2061646472657360008201527f7300000000000000000000000000000000000000000000000000000000000000602082015250565b600061188360218361104e565b915061188e82611827565b604082019050919050565b600060208201905081810360008301526118b281611876565b9050919050565b7f45524332303a206275726e20616d6f756e7420657863656564732062616c616e60008201527f6365000000000000000000000000000000000000000000000000000000000000602082015250565b600061191560228361104e565b9150611920826118b9565b604082019050919050565b6000602082019050818103600083015261194481611908565b9050919050565b7f45524332303a206d696e7420746f20746865207a65726f206164647265737300600082015250565b6000611981601f8361104e565b915061198c8261194b565b602082019050919050565b600060208201905081810360008301526119b081611974565b905091905056fea26469706673582212207251174fb51e7388d8fd315cc8eb320cfbdd1170d75c59d162b8f435ee7321d664736f6c6343000812003360806040523480156200001157600080fd5b50604051620013da380380620013da833981810160405281019062000037919062000185565b600160008190555082600160006101000a81548173ffffffffffffffffffffffffffffffffffffffff021916908373ffffffffffffffffffffffffffffffffffffffff16021790555081600260006101000a81548173ffffffffffffffffffffffffffffffffffffffff021916908373ffffffffffffffffffffffffffffffffffffffff16021790555080600360006101000a81548173ffffffffffffffffffffffffffffffffffffffff021916908373ffffffffffffffffffffffffffffffffffffffff16021790555060006004819055506000600581905550505050620001e1565b600080fd5b600073ffffffffffffffffffffffffffffffffffffffff82169050919050565b60006200014d8262000120565b9050919050565b6200015f8162000140565b81146200016b57600080fd5b50565b6000815190506200017f8162000154565b92915050565b600080600060608486031215620001a157620001a06200011b565b5b6000620001b1868287016200016e565b9350506020620001c4868287016200016e565b9250506040620001d7868287016200016e565b9150509250925092565b6111e980620001f16000396000f3fe6080604052600436106100a05760003560e01c8063768713f511610064578063768713f5146101955780637824407f146101d257806398d5fdca146101fd578063a6f2ae3a14610228578063e4849b3214610232578063fc0c546a1461025b576100a7565b806302d05d3f146100ac57806312065fe0146100d75780631fb87f39146101025780634bde38c81461013f5780634e6630b01461016a576100a7565b366100a757005b600080fd5b3480156100b857600080fd5b506100c1610286565b6040516100ce9190610ad8565b60405180910390f35b3480156100e357600080fd5b506100ec6102ac565b6040516100f99190610b0c565b60405180910390f35b34801561010e57600080fd5b5061012960048036038101906101249190610b58565b6102b4565b6040516101369190610b0c565b60405180910390f35b34801561014b57600080fd5b50610154610377565b6040516101619190610ad8565b60405180910390f35b34801561017657600080fd5b5061017f61039d565b60405161018c9190610b0c565b60405180910390f35b3480156101a157600080fd5b506101bc60048036038101906101b79190610b58565b6103a3565b6040516101c99190610b0c565b60405180910390f35b3480156101de57600080fd5b506101e7610439565b6040516101f49190610b0c565b60405180910390f35b34801561020957600080fd5b5061021261043f565b60405161021f9190610b0c565b60405180910390f35b61023061047c565b005b34801561023e57600080fd5b5061025960048036038101906102549190610b58565b610683565b005b34801561026757600080fd5b50610270610a18565b60405161027d9190610be4565b60405180910390f35b600260009054906101000a900473ffffffffffffffffffffffffffffffffffffffff1681565b600047905090565b60008082036102c65760009050610372565b60006102d061043f565b9050600081036102f657670de0b6b3a7640000836102ee9190610c2e565b915050610372565b600081846103049190610c9f565b6005546103119190610cd0565b670de0b6b3a7640000856004546103289190610cd0565b6103329190610c2e565b61033c9190610c9f565b905060006002828461034e9190610cd0565b6103589190610c9f565b9050600081866103689190610c9f565b9050809450505050505b919050565b600360009054906101000a900473ffffffffffffffffffffffffffffffffffffffff1681565b60045481565b60008082036103b55760009050610434565b6005548211156103c85760009050610434565b6000600554036103db5760009050610434565b6000826005546103eb9190610d04565b905060008082116103fd576000610419565b6005546004548361040e9190610c2e565b6104189190610c9f565b5b905060008160045461042b9190610d04565b90508093505050505b919050565b60055481565b600080600554036104535760009050610479565b600554670de0b6b3a764000060045461046c9190610c2e565b6104769190610c9f565b90505b90565b610484610a3e565b600034116104c7576040517f08c379a00000000000000000000000000000000000000000000000000000000081526004016104be90610d95565b60405180910390fd5b60006104d2346102b4565b905060008111610517576040517f08c379a000000000000000000000000000000000000000000000000000000000815260040161050e90610e01565b60405180910390fd5b34600460008282546105299190610cd0565b9250508190555080600560008282546105429190610cd0565b92505081905550600160009054906101000a900473ffffffffffffffffffffffffffffffffffffffff1673ffffffffffffffffffffffffffffffffffffffff1663a9059cbb33836040518363ffffffff1660e01b81526004016105a6929190610e21565b6020604051808303816000875af11580156105c5573d6000803e3d6000fd5b505050506040513d601f19601f820116820180604052508101906105e99190610e82565b610628576040517f08c379a000000000000000000000000000000000000000000000000000000000815260040161061f90610efb565b60405180910390fd5b3373ffffffffffffffffffffffffffffffffffffffff167f1cbc5ab135991bd2b6a4b034a04aa2aa086dac1371cb9b16b8b5e2ed6b036bed3483604051610670929190610f1b565b60405180910390a250610681610a8d565b565b61068b610a3e565b600081116106ce576040517f08c379a00000000000000000000000000000000000000000000000000000000081526004016106c590610f90565b60405180910390fd5b80600160009054906101000a900473ffffffffffffffffffffffffffffffffffffffff1673ffffffffffffffffffffffffffffffffffffffff166370a08231336040518263ffffffff1660e01b815260040161072a9190610ad8565b602060405180830381865afa158015610747573d6000803e3d6000fd5b505050506040513d601f19601f8201168201806040525081019061076b9190610fc5565b10156107ac576040517f08c379a00000000000000000000000000000000000000000000000000000000081526004016107a39061103e565b60405180910390fd5b60006107b7826103a3565b9050600081116107fc576040517f08c379a00000000000000000000000000000000000000000000000000000000081526004016107f390610e01565b60405180910390fd5b600160009054906101000a900473ffffffffffffffffffffffffffffffffffffffff1673ffffffffffffffffffffffffffffffffffffffff166323b872dd3330856040518463ffffffff1660e01b815260040161085b9392919061105e565b6020604051808303816000875af115801561087a573d6000803e3d6000fd5b505050506040513d601f19601f8201168201806040525081019061089e9190610e82565b6108dd576040517f08c379a00000000000000000000000000000000000000000000000000000000081526004016108d490610efb565b60405180910390fd5b80600460008282546108ef9190610d04565b9250508190555081600560008282546109089190610d04565b9250508190555060003373ffffffffffffffffffffffffffffffffffffffff1682604051610935906110c6565b60006040518083038185875af1925050503d8060008114610972576040519150601f19603f3d011682016040523d82523d6000602084013e610977565b606091505b50509050806109bb576040517f08c379a00000000000000000000000000000000000000000000000000000000081526004016109b290611127565b60405180910390fd5b3373ffffffffffffffffffffffffffffffffffffffff167fed7a144fad14804d5c249145e3e0e2b63a9eb455b76aee5bc92d711e9bba3e4a8484604051610a03929190610f1b565b60405180910390a25050610a15610a8d565b50565b600160009054906101000a900473ffffffffffffffffffffffffffffffffffffffff1681565b600260005403610a83576040517f08c379a0000000000000000000000000000000000000000000000000000000008152600401610a7a90611193565b60405180910390fd5b6002600081905550565b6001600081905550565b600073ffffffffffffffffffffffffffffffffffffffff82169050919050565b6000610ac282610a97565b9050919050565b610ad281610ab7565b82525050565b6000602082019050610aed6000830184610ac9565b92915050565b6000819050919050565b610b0681610af3565b82525050565b6000602082019050610b216000830184610afd565b92915050565b600080fd5b610b3581610af3565b8114610b4057600080fd5b50565b600081359050610b5281610b2c565b92915050565b600060208284031215610b6e57610b6d610b27565b5b6000610b7c84828501610b43565b91505092915050565b6000819050919050565b6000610baa610ba5610ba084610a97565b610b85565b610a97565b9050919050565b6000610bbc82610b8f565b9050919050565b6000610bce82610bb1565b9050919050565b610bde81610bc3565b82525050565b6000602082019050610bf96000830184610bd5565b92915050565b7f4e487b7100000000000000000000000000000000000000000000000000000000600052601160045260246000fd5b6000610c3982610af3565b9150610c4483610af3565b9250828202610c5281610af3565b91508282048414831517610c6957610c68610bff565b5b5092915050565b7f4e487b7100000000000000000000000000000000000000000000000000000000600052601260045260246000fd5b6000610caa82610af3565b9150610cb583610af3565b925082610cc557610cc4610c70565b5b828204905092915050565b6000610cdb82610af3565b9150610ce683610af3565b9250828201905080821115610cfe57610cfd610bff565b5b92915050565b6000610d0f82610af3565b9150610d1a83610af3565b9250828203905081811115610d3257610d31610bff565b5b92915050565b600082825260208201905092915050565b7f4554482072657175697265640000000000000000000000000000000000000000600082015250565b6000610d7f600c83610d38565b9150610d8a82610d49565b602082019050919050565b60006020820190508181036000830152610dae81610d72565b9050919050565b7f496e73756666696369656e74206c697175696469747900000000000000000000600082015250565b6000610deb601683610d38565b9150610df682610db5565b602082019050919050565b60006020820190508181036000830152610e1a81610dde565b9050919050565b6000604082019050610e366000830185610ac9565b610e436020830184610afd565b9392505050565b60008115159050919050565b610e5f81610e4a565b8114610e6a57600080fd5b50565b600081519050610e7c81610e56565b92915050565b600060208284031215610e9857610e97610b27565b5b6000610ea684828501610e6d565b91505092915050565b7f546f6b656e207472616e73666572206661696c65640000000000000000000000600082015250565b6000610ee5601583610d38565b9150610ef082610eaf565b602082019050919050565b60006020820190508181036000830152610f1481610ed8565b9050919050565b6000604082019050610f306000830185610afd565b610f3d6020830184610afd565b9392505050565b7f546f6b656e20616d6f756e742072657175697265640000000000000000000000600082015250565b6000610f7a601583610d38565b9150610f8582610f44565b602082019050919050565b60006020820190508181036000830152610fa981610f6d565b9050919050565b600081519050610fbf81610b2c565b92915050565b600060208284031215610fdb57610fda610b27565b5b6000610fe984828501610fb0565b91505092915050565b7f496e73756666696369656e742062616c616e6365000000000000000000000000600082015250565b6000611028601483610d38565b915061103382610ff2565b602082019050919050565b600060208201905081810360008301526110578161101b565b9050919050565b60006060820190506110736000830186610ac9565b6110806020830185610ac9565b61108d6040830184610afd565b949350505050565b600081905092915050565b50565b60006110b0600083611095565b91506110bb826110a0565b600082019050919050565b60006110d1826110a3565b9150819050919050565b7f455448207472616e73666572206661696c656400000000000000000000000000600082015250565b6000611111601383610d38565b915061111c826110db565b602082019050919050565b6000602082019050818103600083015261114081611104565b9050919050565b7f5265656e7472616e637947756172643a207265656e7472616e742063616c6c00600082015250565b600061117d601f83610d38565b915061118882611147565b602082019050919050565b600060208201905081810360008301526111ac81611170565b905091905056fea26469706673582212207ad75293f560fa1c541362d0296cc5850ef934be4c948297f5776711d883267f64736f6c63430008120033a264697066735822122079d0928a71e462516c6b686d86ae1315b72bc046c77c6925c3cb20af8396e85064736f6c63430008120033",
  "linkReferences": {},
  "deployedLinkReferences": {}
}