{
  "_format": "hh-sol-artifact-1",
  "contractName": "DataCoinFactory",
  "sourceName": "contracts/DataCoinFactory.sol",
  "abi": [
    {
      "anonymous": false,
      "inputs": [
        {
          "indexed": true,
          "internalType": "address",
          "name": "creator",
          "type": "address"
        },
        {
          "indexed": true,
          "internalType": "address",
          "name": "dataCoinAddress",
          "type": "address"
        },
        {
          "indexed": false,
          "internalType": "string",
          "name": "symbol",
          "type": "string"
        },
        {
          "indexed": false,
          "internalType": "string",
          "name": "cid",
          "type": "string"
        }
      ],
      "name": "DataCoinCreated",
      "type": "event"
    },
    {
      "inputs": [
        {
          "internalType": "string",
          "name": "name_",
          "type": "string"
        },
        {
          "internalType": "string",
          "name": "symbol_",
          "type": "string"
        },
        {
          "internalType": "uint256",
          "name": "totalSupply_",
          "type": "uint256"
        },
        {
          "internalType": "uint256",
          "name": "",
          "type": "uint256"
        },
        {
          "internalType": "string",
          "name": "metadataCid_",
          "type": "string"
        }
      ],
      "name": "createDataCoin",
      "outputs": [
        {
          "internalType": "address",
          "name": "",
          "type": "address"
        }
      ],
      "stateMutability": "nonpayable",
      "type": "function"
    }
  ],
  "bytecode": "0x608060405234801561001057600080fd5b50613928806100206000396000f3fe60806040523480156200001157600080fd5b50600436106200002e5760003560e01c80639a8530861462000033575b600080fd5b6200005160048036038101906200004b9190620004a9565b62000069565b604051620000609190620005d3565b60405180910390f35b6000808686600033866040516200008090620002ea565b62000090959493929190620006c6565b604051809103906000f080158015620000ad573d6000803e3d6000fd5b5090508073ffffffffffffffffffffffffffffffffffffffff16632f2ff15d8273ffffffffffffffffffffffffffffffffffffffff1663a217fddf6040518163ffffffff1660e01b8152600401602060405180830381865afa15801562000118573d6000803e3d6000fd5b505050506040513d601f19601f820116820180604052508101906200013e919062000773565b336040518363ffffffff1660e01b81526004016200015e929190620007b6565b600060405180830381600087803b1580156200017957600080fd5b505af11580156200018e573d6000803e3d6000fd5b505050508073ffffffffffffffffffffffffffffffffffffffff16632f2ff15d8273ffffffffffffffffffffffffffffffffffffffff1663d53913936040518163ffffffff1660e01b8152600401602060405180830381865afa158015620001fa573d6000803e3d6000fd5b505050506040513d601f19601f8201168201806040525081019062000220919062000773565b336040518363ffffffff1660e01b815260040162000240929190620007b6565b600060405180830381600087803b1580156200025b57600080fd5b505af115801562000270573d6000803e3d6000fd5b505050508073ffffffffffffffffffffffffffffffffffffffff163373ffffffffffffffffffffffffffffffffffffffff167fd3a9003f976ca0686f6468369e9679750387704728ba801bad8513eb197368d58886604051620002d5929190620007e3565b60405180910390a38091505095945050505050565b6130d4806200081f83390190565b6000604051905090565b600080fd5b600080fd5b600080fd5b600080fd5b6000601f19601f8301169050919050565b7f4e487b7100000000000000000000000000000000000000000000000000000000600052604160045260246000fd5b620003618262000316565b810181811067ffffffffffffffff8211171562000383576200038262000327565b5b80604052505050565b600062000398620002f8565b9050620003a6828262000356565b919050565b600067ffffffffffffffff821115620003c957620003c862000327565b5b620003d48262000316565b9050602081019050919050565b82818337600083830152505050565b6000620004076200040184620003ab565b6200038c565b90508281526020810184848401111562000426576200042562000311565b5b62000433848285620003e1565b509392505050565b600082601f8301126200045357620004526200030c565b5b813562000465848260208601620003f0565b91505092915050565b6000819050919050565b62000483816200046e565b81146200048f57600080fd5b50565b600081359050620004a38162000478565b92915050565b600080600080600060a08688031215620004c857620004c762000302565b5b600086013567ffffffffffffffff811115620004e957620004e862000307565b5b620004f7888289016200043b565b955050602086013567ffffffffffffffff8111156200051b576200051a62000307565b5b62000529888289016200043b565b94505060406200053c8882890162000492565b93505060606200054f8882890162000492565b925050608086013567ffffffffffffffff81111562000573576200057262000307565b5b62000581888289016200043b565b9150509295509295909350565b600073ffffffffffffffffffffffffffffffffffffffff82169050919050565b6000620005bb826200058e565b9050919050565b620005cd81620005ae565b82525050565b6000602082019050620005ea6000830184620005c2565b92915050565b600081519050919050565b600082825260208201905092915050565b60005b838110156200062c5780820151818401526020810190506200060f565b60008484015250505050565b60006200064582620005f0565b620006518185620005fb565b9350620006638185602086016200060c565b6200066e8162000316565b840191505092915050565b6000819050919050565b6000819050919050565b6000620006ae620006a8620006a28462000679565b62000683565b6200046e565b9050919050565b620006c0816200068d565b82525050565b600060a0820190508181036000830152620006e2818862000638565b90508181036020830152620006f8818762000638565b9050620007096040830186620006b5565b620007186060830185620005c2565b81810360808301526200072c818462000638565b90509695505050505050565b6000819050919050565b6200074d8162000738565b81146200075957600080fd5b50565b6000815190506200076d8162000742565b92915050565b6000602082840312156200078c576200078b62000302565b5b60006200079c848285016200075c565b91505092915050565b620007b08162000738565b82525050565b6000604082019050620007cd6000830185620007a5565b620007dc6020830184620005c2565b9392505050565b60006040820190508181036000830152620007ff818562000638565b9050818103602083015262000815818462000638565b9050939250505056fe60806040523480156200001157600080fd5b50604051620030d4380380620030d4833981810160405281019062000037919062000636565b848481600390816200004a91906200095c565b5080600490816200005c91906200095c565b505050620000746000801b336200012760201b60201c565b620000a67f9f2df0fed2c77648de5860a4cc508cd0818c85b8b8a1ab4ceeef8d981c8956a6336200012760201b60201c565b620000bb6000801b836200012760201b60201c565b620000ed7f9f2df0fed2c77648de5860a4cc508cd0818c85b8b8a1ab4ceeef8d981c8956a6836200012760201b60201c565b8060069081620000fe91906200095c565b5060008311156200011c576200011b82846200021960201b60201c565b5b505050505062000b5e565b6200013982826200038660201b60201c565b620002155760016005600084815260200190815260200160002060000160008373ffffffffffffffffffffffffffffffffffffffff1673ffffffffffffffffffffffffffffffffffffffff16815260200190815260200160002060006101000a81548160ff021916908315150217905550620001ba620003f160201b60201c565b73ffffffffffffffffffffffffffffffffffffffff168173ffffffffffffffffffffffffffffffffffffffff16837f2f8788117e7eff1d82e926ec794901d17c78024a50270940304540a733656f0d60405160405180910390a45b5050565b600073ffffffffffffffffffffffffffffffffffffffff168273ffffffffffffffffffffffffffffffffffffffff16036200028b576040517f08c379a0000000000000000000000000000000000000000000000000000000008152600401620002829062000aa4565b60405180910390fd5b6200029f60008383620003f960201b60201c565b8060026000828254620002b3919062000af5565b92505081905550806000808473ffffffffffffffffffffffffffffffffffffffff1673ffffffffffffffffffffffffffffffffffffffff168152602001908152602001600020600082825401925050819055508173ffffffffffffffffffffffffffffffffffffffff16600073ffffffffffffffffffffffffffffffffffffffff167fddf252ad1be2c89b69c2b068fc378daa952ba7f163c4a11628f55a4df523b3ef8360405162000366919062000b41565b60405180910390a36200038260008383620003fe60201b60201c565b5050565b60006005600084815260200190815260200160002060000160008373ffffffffffffffffffffffffffffffffffffffff1673ffffffffffffffffffffffffffffffffffffffff16815260200190815260200160002060009054906101000a900460ff16905092915050565b600033905090565b505050565b505050565b6000604051905090565b600080fd5b600080fd5b600080fd5b600080fd5b6000601f19601f8301169050919050565b7f4e487b7100000000000000000000000000000000000000000000000000000000600052604160045260246000fd5b6200046c8262000421565b810181811067ffffffffffffffff821117156200048e576200048d62000432565b5b80604052505050565b6000620004a362000403565b9050620004b1828262000461565b919050565b600067ffffffffffffffff821115620004d457620004d362000432565b5b620004df8262000421565b9050602081019050919050565b60005b838110156200050c578082015181840152602081019050620004ef565b60008484015250505050565b60006200052f6200052984620004b6565b62000497565b9050828152602081018484840111156200054e576200054d6200041c565b5b6200055b848285620004ec565b509392505050565b600082601f8301126200057b576200057a62000417565b5b81516200058d84826020860162000518565b91505092915050565b6000819050919050565b620005ab8162000596565b8114620005b757600080fd5b50565b600081519050620005cb81620005a0565b92915050565b600073ffffffffffffffffffffffffffffffffffffffff82169050919050565b6000620005fe82620005d1565b9050919050565b6200061081620005f1565b81146200061c57600080fd5b50565b600081519050620006308162000605565b92915050565b600080600080600060a086880312156200065557620006546200040d565b5b600086015167ffffffffffffffff81111562000676576200067562000412565b5b620006848882890162000563565b955050602086015167ffffffffffffffff811115620006a857620006a762000412565b5b620006b68882890162000563565b9450506040620006c988828901620005ba565b9350506060620006dc888289016200061f565b925050608086015167ffffffffffffffff8111156200070057620006ff62000412565b5b6200070e8882890162000563565b9150509295509295909350565b600081519050919050565b7f4e487b7100000000000000000000000000000000000000000000000000000000600052602260045260246000fd5b600060028204905060018216806200076e57607f821691505b60208210810362000784576200078362000726565b5b50919050565b60008190508160005260206000209050919050565b60006020601f8301049050919050565b600082821b905092915050565b600060088302620007ee7fffffffffffffffffffffffffffffffffffffffffffffffffffffffffffffffff82620007af565b620007fa8683620007af565b95508019841693508086168417925050509392505050565b6000819050919050565b60006200083d62000837620008318462000596565b62000812565b62000596565b9050919050565b6000819050919050565b62000859836200081c565b62000871620008688262000844565b848454620007bc565b825550505050565b600090565b6200088862000879565b620008958184846200084e565b505050565b5b81811015620008bd57620008b16000826200087e565b6001810190506200089b565b5050565b601f8211156200090c57620008d6816200078a565b620008e1846200079f565b81016020851015620008f1578190505b6200090962000900856200079f565b8301826200089a565b50505b505050565b600082821c905092915050565b6000620009316000198460080262000911565b1980831691505092915050565b60006200094c83836200091e565b9150826002028217905092915050565b62000967826200071b565b67ffffffffffffffff81111562000983576200098262000432565b5b6200098f825462000755565b6200099c828285620008c1565b600060209050601f831160018114620009d45760008415620009bf578287015190505b620009cb85826200093e565b86555062000a3b565b601f198416620009e4866200078a565b60005b8281101562000a0e57848901518255600182019150602085019450602081019050620009e7565b8683101562000a2e578489015162000a2a601f8916826200091e565b8355505b6001600288020188555050505b505050505050565b600082825260208201905092915050565b7f45524332303a206d696e7420746f20746865207a65726f206164647265737300600082015250565b600062000a8c601f8362000a43565b915062000a998262000a54565b602082019050919050565b6000602082019050818103600083015262000abf8162000a7d565b9050919050565b7f4e487b7100000000000000000000000000000000000000000000000000000000600052601160045260246000fd5b600062000b028262000596565b915062000b0f8362000596565b925082820190508082111562000b2a5762000b2962000ac6565b5b92915050565b62000b3b8162000596565b82525050565b600060208201905062000b58600083018462000b30565b92915050565b6125668062000b6e6000396000f3fe608060405234801561001057600080fd5b506004361061014d5760003560e01c806339509351116100c3578063a217fddf1161007c578063a217fddf146103b2578063a457c2d7146103d0578063a9059cbb14610400578063d539139314610430578063d547741f1461044e578063dd62ed3e1461046a5761014d565b806339509351146102cc57806340c10f19146102fc57806342966c681461031857806370a082311461033457806391d148541461036457806395d89b41146103945761014d565b806323b872dd1161011557806323b872dd1461020c578063248a9ca31461023c578063250746f71461026c5780632f2ff15d14610276578063313ce5671461029257806336568abe146102b05761014d565b806301ffc9a71461015257806306fdde0314610182578063095ea7b3146101a057806312f741b6146101d057806318160ddd146101ee575b600080fd5b61016c6004803603810190610167919061182c565b61049a565b6040516101799190611874565b60405180910390f35b61018a610514565b604051610197919061191f565b60405180910390f35b6101ba60048036038101906101b591906119d5565b6105a6565b6040516101c79190611874565b60405180910390f35b6101d86105c9565b6040516101e5919061191f565b60405180910390f35b6101f6610657565b6040516102039190611a24565b60405180910390f35b61022660048036038101906102219190611a3f565b610661565b6040516102339190611874565b60405180910390f35b61025660048036038101906102519190611ac8565b610690565b6040516102639190611b04565b60405180910390f35b6102746106b0565b005b610290600480360381019061028b9190611b1f565b6106c4565b005b61029a6106e5565b6040516102a79190611b7b565b60405180910390f35b6102ca60048036038101906102c59190611b1f565b6106ee565b005b6102e660048036038101906102e191906119d5565b610771565b6040516102f39190611874565b60405180910390f35b610316600480360381019061031191906119d5565b6107a8565b005b610332600480360381019061032d9190611b96565b6107e1565b005b61034e60048036038101906103499190611bc3565b6107ee565b60405161035b9190611a24565b60405180910390f35b61037e60048036038101906103799190611b1f565b610836565b60405161038b9190611874565b60405180910390f35b61039c6108a1565b6040516103a9919061191f565b60405180910390f35b6103ba610933565b6040516103c79190611b04565b60405180910390f35b6103ea60048036038101906103e591906119d5565b61093a565b6040516103f79190611874565b60405180910390f35b61041a600480360381019061041591906119d5565b6109b1565b6040516104279190611874565b60405180910390f35b6104386109d4565b6040516104459190611b04565b60405180910390f35b61046860048036038101906104639190611b1f565b6109f8565b005b610484600480360381019061047f9190611bf0565b610a19565b6040516104919190611a24565b60405180910390f35b60007f7965db0b000000000000000000000000000000000000000000000000000000007bffffffffffffffffffffffffffffffffffffffffffffffffffffffff1916827bffffffffffffffffffffffffffffffffffffffffffffffffffffffff1916148061050d575061050c82610aa0565b5b9050919050565b60606003805461052390611c5f565b80601f016020809104026020016040519081016040528092919081815260200182805461054f90611c5f565b801561059c5780601f106105715761010080835404028352916020019161059c565b820191906000526020600020905b81548152906001019060200180831161057f57829003601f168201915b5050505050905090565b6000806105b1610b0a565b90506105be818585610b12565b600191505092915050565b600680546105d690611c5f565b80601f016020809104026020016040519081016040528092919081815260200182805461060290611c5f565b801561064f5780601f106106245761010080835404028352916020019161064f565b820191906000526020600020905b81548152906001019060200180831161063257829003601f168201915b505050505081565b6000600254905090565b60008061066c610b0a565b9050610679858285610cdb565b610684858585610d67565b60019150509392505050565b600060056000838152602001908152602001600020600101549050919050565b6106c2336106bd336107ee565b610fdd565b565b6106cd82610690565b6106d6816111aa565b6106e083836111be565b505050565b60006012905090565b6106f6610b0a565b73ffffffffffffffffffffffffffffffffffffffff168173ffffffffffffffffffffffffffffffffffffffff1614610763576040517f08c379a000000000000000000000000000000000000000000000000000000000815260040161075a90611d02565b60405180910390fd5b61076d828261129f565b5050565b60008061077c610b0a565b905061079d81858561078e8589610a19565b6107989190611d51565b610b12565b600191505092915050565b7f9f2df0fed2c77648de5860a4cc508cd0818c85b8b8a1ab4ceeef8d981c8956a66107d2816111aa565b6107dc8383611381565b505050565b6107eb3382610fdd565b50565b60008060008373ffffffffffffffffffffffffffffffffffffffff1673ffffffffffffffffffffffffffffffffffffffff168152602001908152602001600020549050919050565b60006005600084815260200190815260200160002060000160008373ffffffffffffffffffffffffffffffffffffffff1673ffffffffffffffffffffffffffffffffffffffff16815260200190815260200160002060009054906101000a900460ff16905092915050565b6060600480546108b090611c5f565b80601f01602080910402602001604051908101604052809291908181526020018280546108dc90611c5f565b80156109295780601f106108fe57610100808354040283529160200191610929565b820191906000526020600020905b81548152906001019060200180831161090c57829003601f168201915b5050505050905090565b6000801b81565b600080610945610b0a565b905060006109538286610a19565b905083811015610998576040517f08c379a000000000000000000000000000000000000000000000000000000000815260040161098f90611df7565b60405180910390fd5b6109a58286868403610b12565b60019250505092915050565b6000806109bc610b0a565b90506109c9818585610d67565b600191505092915050565b7f9f2df0fed2c77648de5860a4cc508cd0818c85b8b8a1ab4ceeef8d981c8956a681565b610a0182610690565b610a0a816111aa565b610a14838361129f565b505050565b6000600160008473ffffffffffffffffffffffffffffffffffffffff1673ffffffffffffffffffffffffffffffffffffffff16815260200190815260200160002060008373ffffffffffffffffffffffffffffffffffffffff1673ffffffffffffffffffffffffffffffffffffffff16815260200190815260200160002054905092915050565b60007f01ffc9a7000000000000000000000000000000000000000000000000000000007bffffffffffffffffffffffffffffffffffffffffffffffffffffffff1916827bffffffffffffffffffffffffffffffffffffffffffffffffffffffff1916149050919050565b600033905090565b600073ffffffffffffffffffffffffffffffffffffffff168373ffffffffffffffffffffffffffffffffffffffff1603610b81576040517f08c379a0000000000000000000000000000000000000000000000000000000008152600401610b7890611e89565b60405180910390fd5b600073ffffffffffffffffffffffffffffffffffffffff168273ffffffffffffffffffffffffffffffffffffffff1603610bf0576040517f08c379a0000000000000000000000000000000000000000000000000000000008152600401610be790611f1b565b60405180910390fd5b80600160008573ffffffffffffffffffffffffffffffffffffffff1673ffffffffffffffffffffffffffffffffffffffff16815260200190815260200160002060008473ffffffffffffffffffffffffffffffffffffffff1673ffffffffffffffffffffffffffffffffffffffff168152602001908152602001600020819055508173ffffffffffffffffffffffffffffffffffffffff168373ffffffffffffffffffffffffffffffffffffffff167f8c5be1e5ebec7d5bd14f71427d1e84f3dd0314c0f7b2291e5b200ac8c7c3b92583604051610cce9190611a24565b60405180910390a3505050565b6000610ce78484610a19565b90507fffffffffffffffffffffffffffffffffffffffffffffffffffffffffffffffff8114610d615781811015610d53576040517f08c379a0000000000000000000000000000000000000000000000000000000008152600401610d4a90611f87565b60405180910390fd5b610d608484848403610b12565b5b50505050565b600073ffffffffffffffffffffffffffffffffffffffff168373ffffffffffffffffffffffffffffffffffffffff1603610dd6576040517f08c379a0000000000000000000000000000000000000000000000000000000008152600401610dcd90612019565b60405180910390fd5b600073ffffffffffffffffffffffffffffffffffffffff168273ffffffffffffffffffffffffffffffffffffffff1603610e45576040517f08c379a0000000000000000000000000000000000000000000000000000000008152600401610e3c906120ab565b60405180910390fd5b610e508383836114d7565b60008060008573ffffffffffffffffffffffffffffffffffffffff1673ffffffffffffffffffffffffffffffffffffffff16815260200190815260200160002054905081811015610ed6576040517f08c379a0000000000000000000000000000000000000000000000000000000008152600401610ecd9061213d565b60405180910390fd5b8181036000808673ffffffffffffffffffffffffffffffffffffffff1673ffffffffffffffffffffffffffffffffffffffff16815260200190815260200160002081905550816000808573ffffffffffffffffffffffffffffffffffffffff1673ffffffffffffffffffffffffffffffffffffffff168152602001908152602001600020600082825401925050819055508273ffffffffffffffffffffffffffffffffffffffff168473ffffffffffffffffffffffffffffffffffffffff167fddf252ad1be2c89b69c2b068fc378daa952ba7f163c4a11628f55a4df523b3ef84604051610fc49190611a24565b60405180910390a3610fd78484846114dc565b50505050565b600073ffffffffffffffffffffffffffffffffffffffff168273ffffffffffffffffffffffffffffffffffffffff160361104c576040517f08c379a0000000000000000000000000000000000000000000000000000000008152600401611043906121cf565b60405180910390fd5b611058826000836114d7565b60008060008473ffffffffffffffffffffffffffffffffffffffff1673ffffffffffffffffffffffffffffffffffffffff168152602001908152602001600020549050818110156110de576040517f08c379a00000000000000000000000000000000000000000000000000000000081526004016110d590612261565b60405180910390fd5b8181036000808573ffffffffffffffffffffffffffffffffffffffff1673ffffffffffffffffffffffffffffffffffffffff1681526020019081526020016000208190555081600260008282540392505081905550600073ffffffffffffffffffffffffffffffffffffffff168373ffffffffffffffffffffffffffffffffffffffff167fddf252ad1be2c89b69c2b068fc378daa952ba7f163c4a11628f55a4df523b3ef846040516111919190611a24565b60405180910390a36111a5836000846114dc565b505050565b6111bb816111b6610b0a565b6114e1565b50565b6111c88282610836565b61129b5760016005600084815260200190815260200160002060000160008373ffffffffffffffffffffffffffffffffffffffff1673ffffffffffffffffffffffffffffffffffffffff16815260200190815260200160002060006101000a81548160ff021916908315150217905550611240610b0a565b73ffffffffffffffffffffffffffffffffffffffff168173ffffffffffffffffffffffffffffffffffffffff16837f2f8788117e7eff1d82e926ec794901d17c78024a50270940304540a733656f0d60405160405180910390a45b5050565b6112a98282610836565b1561137d5760006005600084815260200190815260200160002060000160008373ffffffffffffffffffffffffffffffffffffffff1673ffffffffffffffffffffffffffffffffffffffff16815260200190815260200160002060006101000a81548160ff021916908315150217905550611322610b0a565b73ffffffffffffffffffffffffffffffffffffffff168173ffffffffffffffffffffffffffffffffffffffff16837ff6391f5c32d9c69d2a47ea670b442974b53935d1edc7fd64eb21e047a839171b60405160405180910390a45b5050565b600073ffffffffffffffffffffffffffffffffffffffff168273ffffffffffffffffffffffffffffffffffffffff16036113f0576040517f08c379a00000000000000000000000000000000000000000000000000000000081526004016113e7906122cd565b60405180910390fd5b6113fc600083836114d7565b806002600082825461140e9190611d51565b92505081905550806000808473ffffffffffffffffffffffffffffffffffffffff1673ffffffffffffffffffffffffffffffffffffffff168152602001908152602001600020600082825401925050819055508173ffffffffffffffffffffffffffffffffffffffff16600073ffffffffffffffffffffffffffffffffffffffff167fddf252ad1be2c89b69c2b068fc378daa952ba7f163c4a11628f55a4df523b3ef836040516114bf9190611a24565b60405180910390a36114d3600083836114dc565b5050565b505050565b505050565b6114eb8282610836565b611562576114f881611566565b6115068360001c6020611593565b6040516020016115179291906123c1565b6040516020818303038152906040526040517f08c379a0000000000000000000000000000000000000000000000000000000008152600401611559919061191f565b60405180910390fd5b5050565b606061158c8273ffffffffffffffffffffffffffffffffffffffff16601460ff16611593565b9050919050565b6060600060028360026115a691906123fb565b6115b09190611d51565b67ffffffffffffffff8111156115c9576115c861243d565b5b6040519080825280601f01601f1916602001820160405280156115fb5781602001600182028036833780820191505090505b5090507f3000000000000000000000000000000000000000000000000000000000000000816000815181106116335761163261246c565b5b60200101907effffffffffffffffffffffffffffffffffffffffffffffffffffffffffffff1916908160001a9053507f7800000000000000000000000000000000000000000000000000000000000000816001815181106116975761169661246c565b5b60200101907effffffffffffffffffffffffffffffffffffffffffffffffffffffffffffff1916908160001a905350600060018460026116d791906123fb565b6116e19190611d51565b90505b6001811115611781577f3031323334353637383961626364656600000000000000000000000000000000600f8616601081106117235761172261246c565b5b1a60f81b82828151811061173a5761173961246c565b5b60200101907effffffffffffffffffffffffffffffffffffffffffffffffffffffffffffff1916908160001a905350600485901c94508061177a9061249b565b90506116e4565b50600084146117c5576040517f08c379a00000000000000000000000000000000000000000000000000000000081526004016117bc90612510565b60405180910390fd5b8091505092915050565b600080fd5b60007fffffffff0000000000000000000000000000000000000000000000000000000082169050919050565b611809816117d4565b811461181457600080fd5b50565b60008135905061182681611800565b92915050565b600060208284031215611842576118416117cf565b5b600061185084828501611817565b91505092915050565b60008115159050919050565b61186e81611859565b82525050565b60006020820190506118896000830184611865565b92915050565b600081519050919050565b600082825260208201905092915050565b60005b838110156118c95780820151818401526020810190506118ae565b60008484015250505050565b6000601f19601f8301169050919050565b60006118f18261188f565b6118fb818561189a565b935061190b8185602086016118ab565b611914816118d5565b840191505092915050565b6000602082019050818103600083015261193981846118e6565b905092915050565b600073ffffffffffffffffffffffffffffffffffffffff82169050919050565b600061196c82611941565b9050919050565b61197c81611961565b811461198757600080fd5b50565b60008135905061199981611973565b92915050565b6000819050919050565b6119b28161199f565b81146119bd57600080fd5b50565b6000813590506119cf816119a9565b92915050565b600080604083850312156119ec576119eb6117cf565b5b60006119fa8582860161198a565b9250506020611a0b858286016119c0565b9150509250929050565b611a1e8161199f565b82525050565b6000602082019050611a396000830184611a15565b92915050565b600080600060608486031215611a5857611a576117cf565b5b6000611a668682870161198a565b9350506020611a778682870161198a565b9250506040611a88868287016119c0565b9150509250925092565b6000819050919050565b611aa581611a92565b8114611ab057600080fd5b50565b600081359050611ac281611a9c565b92915050565b600060208284031215611ade57611add6117cf565b5b6000611aec84828501611ab3565b91505092915050565b611afe81611a92565b82525050565b6000602082019050611b196000830184611af5565b92915050565b60008060408385031215611b3657611b356117cf565b5b6000611b4485828601611ab3565b9250506020611b558582860161198a565b9150509250929050565b600060ff82169050919050565b611b7581611b5f565b82525050565b6000602082019050611b906000830184611b6c565b92915050565b600060208284031215611bac57611bab6117cf565b5b6000611bba848285016119c0565b91505092915050565b600060208284031215611bd957611bd86117cf565b5b6000611be78482850161198a565b91505092915050565b60008060408385031215611c0757611c066117cf565b5b6000611c158582860161198a565b9250506020611c268582860161198a565b9150509250929050565b7f4e487b7100000000000000000000000000000000000000000000000000000000600052602260045260246000fd5b60006002820490506001821680611c7757607f821691505b602082108103611c8a57611c89611c30565b5b50919050565b7f416363657373436f6e74726f6c3a2063616e206f6e6c792072656e6f756e636560008201527f20726f6c657320666f722073656c660000000000000000000000000000000000602082015250565b6000611cec602f8361189a565b9150611cf782611c90565b604082019050919050565b60006020820190508181036000830152611d1b81611cdf565b9050919050565b7f4e487b7100000000000000000000000000000000000000000000000000000000600052601160045260246000fd5b6000611d5c8261199f565b9150611d678361199f565b9250828201905080821115611d7f57611d7e611d22565b5b92915050565b7f45524332303a2064656372656173656420616c6c6f77616e63652062656c6f7760008201527f207a65726f000000000000000000000000000000000000000000000000000000602082015250565b6000611de160258361189a565b9150611dec82611d85565b604082019050919050565b60006020820190508181036000830152611e1081611dd4565b9050919050565b7f45524332303a20617070726f76652066726f6d20746865207a65726f2061646460008201527f7265737300000000000000000000000000000000000000000000000000000000602082015250565b6000611e7360248361189a565b9150611e7e82611e17565b604082019050919050565b60006020820190508181036000830152611ea281611e66565b9050919050565b7f45524332303a20617070726f766520746f20746865207a65726f20616464726560008201527f7373000000000000000000000000000000000000000000000000000000000000602082015250565b6000611f0560228361189a565b9150611f1082611ea9565b604082019050919050565b60006020820190508181036000830152611f3481611ef8565b9050919050565b7f45524332303a20696e73756666696369656e7420616c6c6f77616e6365000000600082015250565b6000611f71601d8361189a565b9150611f7c82611f3b565b602082019050919050565b60006020820190508181036000830152611fa081611f64565b9050919050565b7f45524332303a207472616e736665722066726f6d20746865207a65726f20616460008201527f6472657373000000000000000000000000000000000000000000000000000000602082015250565b600061200360258361189a565b915061200e82611fa7565b604082019050919050565b6000602082019050818103600083015261203281611ff6565b9050919050565b7f45524332303a207472616e7366657220746f20746865207a65726f206164647260008201527f6573730000000000000000000000000000000000000000000000000000000000602082015250565b600061209560238361189a565b91506120a082612039565b604082019050919050565b600060208201905081810360008301526120c481612088565b9050919050565b7f45524332303a207472616e7366657220616d6f756e742065786365656473206260008201527f616c616e63650000000000000000000000000000000000000000000000000000602082015250565b600061212760268361189a565b9150612132826120cb565b604082019050919050565b600060208201905081810360008301526121568161211a565b9050919050565b7f45524332303a206275726e2066726f6d20746865207a65726f2061646472657360008201527f7300000000000000000000000000000000000000000000000000000000000000602082015250565b60006121b960218361189a565b91506121c48261215d565b604082019050919050565b600060208201905081810360008301526121e8816121ac565b9050919050565b7f45524332303a206275726e20616d6f756e7420657863656564732062616c616e60008201527f6365000000000000000000000000000000000000000000000000000000000000602082015250565b600061224b60228361189a565b9150612256826121ef565b604082019050919050565b6000602082019050818103600083015261227a8161223e565b9050919050565b7f45524332303a206d696e7420746f20746865207a65726f206164647265737300600082015250565b60006122b7601f8361189a565b91506122c282612281565b602082019050919050565b600060208201905081810360008301526122e6816122aa565b9050919050565b600081905092915050565b7f416363657373436f6e74726f6c3a206163636f756e7420000000000000000000600082015250565b600061232e6017836122ed565b9150612339826122f8565b601782019050919050565b600061234f8261188f565b61235981856122ed565b93506123698185602086016118ab565b80840191505092915050565b7f206973206d697373696e6720726f6c6520000000000000000000000000000000600082015250565b60006123ab6011836122ed565b91506123b682612375565b601182019050919050565b60006123cc82612321565b91506123d88285612344565b91506123e38261239e565b91506123ef8284612344565b91508190509392505050565b60006124068261199f565b91506124118361199f565b925082820261241f8161199f565b9150828204841483151761243657612435611d22565b5b5092915050565b7f4e487b7100000000000000000000000000000000000000000000000000000000600052604160045260246000fd5b7f4e487b7100000000000000000000000000000000000000000000000000000000600052603260045260246000fd5b60006124a68261199f565b9150600082036124b9576124b8611d22565b5b600182039050919050565b7f537472696e67733a20686578206c656e67746820696e73756666696369656e74600082015250565b60006124fa60208361189a565b9150612505826124c4565b602082019050919050565b60006020820190508181036000830152612529816124ed565b905091905056fea2646970667358221220dcc599fd8831c9f513c13f4aa0002bffcb705616b79843b97c3ba4402cd753db64736f6c63430008120033a26469706673582212207808cda15a9b1f1e8e2a92ac3731fe1d2a2e24d7cf6cb7480c198f3b976c9fec64736f6c63430008120033",
  "linkReferences": {},
  "deployedLinkReferences": {}
}