{
  "_format": "hh-sol-artifact-1",
  "contractName": "DataCoinFactory",
  "sourceName": "contracts/DataCoinFactory.sol",
  "abi": [
    {
      "inputs": [
        {
          "internalType": "address",
          "name": "_platform",
          "type": "address"
        }
      ],
      "stateMutability": "nonpayable",
      "type": "constructor"
    },
    {
      "anonymous": false,
      "inputs": [
        {
          "indexed": true,
          "internalType": "address",
          "name": "creator",
          "type": "address"
        },
        {
          "indexed": true,
          "internalType": "address",
          "name": "dataCoinAddress",
          "type": "address"
        },
        {
          "indexed": true,
          "internalType": "address",
          "name": "bondingCurveAddress",
          "type": "address"
        },
        {
          "indexed": false,
          "internalType": "string",
          "name": "symbol",
          "type": "string"
        },
        {
          "indexed": false,
          "internalType": "string",
          "name": "cid",
          "type": "string"
        }
      ],
      "name": "DataCoinCreated",
      "type": "event"
    },
    {
      "inputs": [
        {
          "internalType": "string",
          "name": "name_",
          "type": "string"
        },
        {
          "internalType": "string",
          "name": "symbol_",
          "type": "string"
        },
        {
          "internalType": "uint256",
          "name": "totalSupply_",
          "type": "uint256"
        },
        {
          "internalType": "uint256",
          "name": "",
          "type": "uint256"
        },
        {
          "internalType": "string",
          "name": "metadataCid_",
          "type": "string"
        }
      ],
      "name": "createDataCoin",
      "outputs": [
        {
          "internalType": "address",
          "name": "",
          "type": "address"
        },
        {
          "internalType": "address",
          "name": "",
          "type": "address"
        }
      ],
      "stateMutability": "nonpayable",
      "type": "function"
    },
    {
      "inputs": [],
      "name": "platformAddress",
      "outputs": [
        {
          "internalType": "address",
          "name": "",
          "type": "address"
        }
      ],
      "stateMutability": "view",
      "type": "function"
    }
  ],
  "bytecode": "0x608060405234801561001057600080fd5b50604051614c91380380614c91833981810160405281019061003291906100db565b806000806101000a81548173ffffffffffffffffffffffffffffffffffffffff021916908373ffffffffffffffffffffffffffffffffffffffff16021790555050610108565b600080fd5b600073ffffffffffffffffffffffffffffffffffffffff82169050919050565b60006100a88261007d565b9050919050565b6100b88161009d565b81146100c357600080fd5b50565b6000815190506100d5816100af565b92915050565b6000602082840312156100f1576100f0610078565b5b60006100ff848285016100c6565b91505092915050565b614b7a806101176000396000f3fe60806040523480156200001157600080fd5b50600436106200003a5760003560e01c80639a853086146200003f578063dbe55e561462000076575b600080fd5b6200005d6004803603810190620000579190620003c4565b62000098565b6040516200006d929190620004ee565b60405180910390f35b62000080620001d3565b6040516200008f91906200051b565b60405180910390f35b60008060008787873387604051620000b090620001f7565b620000c0959493929190620005d2565b604051809103906000f080158015620000dd573d6000803e3d6000fd5b5090506000813360008054906101000a900473ffffffffffffffffffffffffffffffffffffffff16604051620001139062000205565b620001219392919062000644565b604051809103906000f0801580156200013e573d6000803e3d6000fd5b5090508073ffffffffffffffffffffffffffffffffffffffff168273ffffffffffffffffffffffffffffffffffffffff163373ffffffffffffffffffffffffffffffffffffffff167fa79ab011fd00aa8a493fdf3de282bb1d62b1bf2fef8819cf4236e0e317fa1c8c8b89604051620001b992919062000681565b60405180910390a481819350935050509550959350505050565b60008054906101000a900473ffffffffffffffffffffffffffffffffffffffff1681565b6130d480620006bd83390190565b6113b4806200379183390190565b6000604051905090565b600080fd5b600080fd5b600080fd5b600080fd5b6000601f19601f8301169050919050565b7f4e487b7100000000000000000000000000000000000000000000000000000000600052604160045260246000fd5b6200027c8262000231565b810181811067ffffffffffffffff821117156200029e576200029d62000242565b5b80604052505050565b6000620002b362000213565b9050620002c1828262000271565b919050565b600067ffffffffffffffff821115620002e457620002e362000242565b5b620002ef8262000231565b9050602081019050919050565b82818337600083830152505050565b6000620003226200031c84620002c6565b620002a7565b9050828152602081018484840111156200034157620003406200022c565b5b6200034e848285620002fc565b509392505050565b600082601f8301126200036e576200036d62000227565b5b8135620003808482602086016200030b565b91505092915050565b6000819050919050565b6200039e8162000389565b8114620003aa57600080fd5b50565b600081359050620003be8162000393565b92915050565b600080600080600060a08688031215620003e357620003e26200021d565b5b600086013567ffffffffffffffff81111562000404576200040362000222565b5b620004128882890162000356565b955050602086013567ffffffffffffffff81111562000436576200043562000222565b5b620004448882890162000356565b94505060406200045788828901620003ad565b93505060606200046a88828901620003ad565b925050608086013567ffffffffffffffff8111156200048e576200048d62000222565b5b6200049c8882890162000356565b9150509295509295909350565b600073ffffffffffffffffffffffffffffffffffffffff82169050919050565b6000620004d682620004a9565b9050919050565b620004e881620004c9565b82525050565b6000604082019050620005056000830185620004dd565b620005146020830184620004dd565b9392505050565b6000602082019050620005326000830184620004dd565b92915050565b600081519050919050565b600082825260208201905092915050565b60005b838110156200057457808201518184015260208101905062000557565b60008484015250505050565b60006200058d8262000538565b62000599818562000543565b9350620005ab81856020860162000554565b620005b68162000231565b840191505092915050565b620005cc8162000389565b82525050565b600060a0820190508181036000830152620005ee818862000580565b9050818103602083015262000604818762000580565b9050620006156040830186620005c1565b620006246060830185620004dd565b818103608083015262000638818462000580565b90509695505050505050565b60006060820190506200065b6000830186620004dd565b6200066a6020830185620004dd565b620006796040830184620004dd565b949350505050565b600060408201905081810360008301526200069d818562000580565b90508181036020830152620006b3818462000580565b9050939250505056fe60806040523480156200001157600080fd5b50604051620030d4380380620030d4833981810160405281019062000037919062000636565b848481600390816200004a91906200095c565b5080600490816200005c91906200095c565b505050620000746000801b336200012760201b60201c565b620000a67f9f2df0fed2c77648de5860a4cc508cd0818c85b8b8a1ab4ceeef8d981c8956a6336200012760201b60201c565b620000bb6000801b836200012760201b60201c565b620000ed7f9f2df0fed2c77648de5860a4cc508cd0818c85b8b8a1ab4ceeef8d981c8956a6836200012760201b60201c565b8060069081620000fe91906200095c565b5060008311156200011c576200011b82846200021960201b60201c565b5b505050505062000b5e565b6200013982826200038660201b60201c565b620002155760016005600084815260200190815260200160002060000160008373ffffffffffffffffffffffffffffffffffffffff1673ffffffffffffffffffffffffffffffffffffffff16815260200190815260200160002060006101000a81548160ff021916908315150217905550620001ba620003f160201b60201c565b73ffffffffffffffffffffffffffffffffffffffff168173ffffffffffffffffffffffffffffffffffffffff16837f2f8788117e7eff1d82e926ec794901d17c78024a50270940304540a733656f0d60405160405180910390a45b5050565b600073ffffffffffffffffffffffffffffffffffffffff168273ffffffffffffffffffffffffffffffffffffffff16036200028b576040517f08c379a0000000000000000000000000000000000000000000000000000000008152600401620002829062000aa4565b60405180910390fd5b6200029f60008383620003f960201b60201c565b8060026000828254620002b3919062000af5565b92505081905550806000808473ffffffffffffffffffffffffffffffffffffffff1673ffffffffffffffffffffffffffffffffffffffff168152602001908152602001600020600082825401925050819055508173ffffffffffffffffffffffffffffffffffffffff16600073ffffffffffffffffffffffffffffffffffffffff167fddf252ad1be2c89b69c2b068fc378daa952ba7f163c4a11628f55a4df523b3ef8360405162000366919062000b41565b60405180910390a36200038260008383620003fe60201b60201c565b5050565b60006005600084815260200190815260200160002060000160008373ffffffffffffffffffffffffffffffffffffffff1673ffffffffffffffffffffffffffffffffffffffff16815260200190815260200160002060009054906101000a900460ff16905092915050565b600033905090565b505050565b505050565b6000604051905090565b600080fd5b600080fd5b600080fd5b600080fd5b6000601f19601f8301169050919050565b7f4e487b7100000000000000000000000000000000000000000000000000000000600052604160045260246000fd5b6200046c8262000421565b810181811067ffffffffffffffff821117156200048e576200048d62000432565b5b80604052505050565b6000620004a362000403565b9050620004b1828262000461565b919050565b600067ffffffffffffffff821115620004d457620004d362000432565b5b620004df8262000421565b9050602081019050919050565b60005b838110156200050c578082015181840152602081019050620004ef565b60008484015250505050565b60006200052f6200052984620004b6565b62000497565b9050828152602081018484840111156200054e576200054d6200041c565b5b6200055b848285620004ec565b509392505050565b600082601f8301126200057b576200057a62000417565b5b81516200058d84826020860162000518565b91505092915050565b6000819050919050565b620005ab8162000596565b8114620005b757600080fd5b50565b600081519050620005cb81620005a0565b92915050565b600073ffffffffffffffffffffffffffffffffffffffff82169050919050565b6000620005fe82620005d1565b9050919050565b6200061081620005f1565b81146200061c57600080fd5b50565b600081519050620006308162000605565b92915050565b600080600080600060a086880312156200065557620006546200040d565b5b600086015167ffffffffffffffff81111562000676576200067562000412565b5b620006848882890162000563565b955050602086015167ffffffffffffffff811115620006a857620006a762000412565b5b620006b68882890162000563565b9450506040620006c988828901620005ba565b9350506060620006dc888289016200061f565b925050608086015167ffffffffffffffff8111156200070057620006ff62000412565b5b6200070e8882890162000563565b9150509295509295909350565b600081519050919050565b7f4e487b7100000000000000000000000000000000000000000000000000000000600052602260045260246000fd5b600060028204905060018216806200076e57607f821691505b60208210810362000784576200078362000726565b5b50919050565b60008190508160005260206000209050919050565b60006020601f8301049050919050565b600082821b905092915050565b600060088302620007ee7fffffffffffffffffffffffffffffffffffffffffffffffffffffffffffffffff82620007af565b620007fa8683620007af565b95508019841693508086168417925050509392505050565b6000819050919050565b60006200083d62000837620008318462000596565b62000812565b62000596565b9050919050565b6000819050919050565b62000859836200081c565b62000871620008688262000844565b848454620007bc565b825550505050565b600090565b6200088862000879565b620008958184846200084e565b505050565b5b81811015620008bd57620008b16000826200087e565b6001810190506200089b565b5050565b601f8211156200090c57620008d6816200078a565b620008e1846200079f565b81016020851015620008f1578190505b6200090962000900856200079f565b8301826200089a565b50505b505050565b600082821c905092915050565b6000620009316000198460080262000911565b1980831691505092915050565b60006200094c83836200091e565b9150826002028217905092915050565b62000967826200071b565b67ffffffffffffffff81111562000983576200098262000432565b5b6200098f825462000755565b6200099c828285620008c1565b600060209050601f831160018114620009d45760008415620009bf578287015190505b620009cb85826200093e565b86555062000a3b565b601f198416620009e4866200078a565b60005b8281101562000a0e57848901518255600182019150602085019450602081019050620009e7565b8683101562000a2e578489015162000a2a601f8916826200091e565b8355505b6001600288020188555050505b505050505050565b600082825260208201905092915050565b7f45524332303a206d696e7420746f20746865207a65726f206164647265737300600082015250565b600062000a8c601f8362000a43565b915062000a998262000a54565b602082019050919050565b6000602082019050818103600083015262000abf8162000a7d565b9050919050565b7f4e487b7100000000000000000000000000000000000000000000000000000000600052601160045260246000fd5b600062000b028262000596565b915062000b0f8362000596565b925082820190508082111562000b2a5762000b2962000ac6565b5b92915050565b62000b3b8162000596565b82525050565b600060208201905062000b58600083018462000b30565b92915050565b6125668062000b6e6000396000f3fe608060405234801561001057600080fd5b506004361061014d5760003560e01c806339509351116100c3578063a217fddf1161007c578063a217fddf146103b2578063a457c2d7146103d0578063a9059cbb14610400578063d539139314610430578063d547741f1461044e578063dd62ed3e1461046a5761014d565b806339509351146102cc57806340c10f19146102fc57806342966c681461031857806370a082311461033457806391d148541461036457806395d89b41146103945761014d565b806323b872dd1161011557806323b872dd1461020c578063248a9ca31461023c578063250746f71461026c5780632f2ff15d14610276578063313ce5671461029257806336568abe146102b05761014d565b806301ffc9a71461015257806306fdde0314610182578063095ea7b3146101a057806312f741b6146101d057806318160ddd146101ee575b600080fd5b61016c6004803603810190610167919061182c565b61049a565b6040516101799190611874565b60405180910390f35b61018a610514565b604051610197919061191f565b60405180910390f35b6101ba60048036038101906101b591906119d5565b6105a6565b6040516101c79190611874565b60405180910390f35b6101d86105c9565b6040516101e5919061191f565b60405180910390f35b6101f6610657565b6040516102039190611a24565b60405180910390f35b61022660048036038101906102219190611a3f565b610661565b6040516102339190611874565b60405180910390f35b61025660048036038101906102519190611ac8565b610690565b6040516102639190611b04565b60405180910390f35b6102746106b0565b005b610290600480360381019061028b9190611b1f565b6106c4565b005b61029a6106e5565b6040516102a79190611b7b565b60405180910390f35b6102ca60048036038101906102c59190611b1f565b6106ee565b005b6102e660048036038101906102e191906119d5565b610771565b6040516102f39190611874565b60405180910390f35b610316600480360381019061031191906119d5565b6107a8565b005b610332600480360381019061032d9190611b96565b6107e1565b005b61034e60048036038101906103499190611bc3565b6107ee565b60405161035b9190611a24565b60405180910390f35b61037e60048036038101906103799190611b1f565b610836565b60405161038b9190611874565b60405180910390f35b61039c6108a1565b6040516103a9919061191f565b60405180910390f35b6103ba610933565b6040516103c79190611b04565b60405180910390f35b6103ea60048036038101906103e591906119d5565b61093a565b6040516103f79190611874565b60405180910390f35b61041a600480360381019061041591906119d5565b6109b1565b6040516104279190611874565b60405180910390f35b6104386109d4565b6040516104459190611b04565b60405180910390f35b61046860048036038101906104639190611b1f565b6109f8565b005b610484600480360381019061047f9190611bf0565b610a19565b6040516104919190611a24565b60405180910390f35b60007f7965db0b000000000000000000000000000000000000000000000000000000007bffffffffffffffffffffffffffffffffffffffffffffffffffffffff1916827bffffffffffffffffffffffffffffffffffffffffffffffffffffffff1916148061050d575061050c82610aa0565b5b9050919050565b60606003805461052390611c5f565b80601f016020809104026020016040519081016040528092919081815260200182805461054f90611c5f565b801561059c5780601f106105715761010080835404028352916020019161059c565b820191906000526020600020905b81548152906001019060200180831161057f57829003601f168201915b5050505050905090565b6000806105b1610b0a565b90506105be818585610b12565b600191505092915050565b600680546105d690611c5f565b80601f016020809104026020016040519081016040528092919081815260200182805461060290611c5f565b801561064f5780601f106106245761010080835404028352916020019161064f565b820191906000526020600020905b81548152906001019060200180831161063257829003601f168201915b505050505081565b6000600254905090565b60008061066c610b0a565b9050610679858285610cdb565b610684858585610d67565b60019150509392505050565b600060056000838152602001908152602001600020600101549050919050565b6106c2336106bd336107ee565b610fdd565b565b6106cd82610690565b6106d6816111aa565b6106e083836111be565b505050565b60006012905090565b6106f6610b0a565b73ffffffffffffffffffffffffffffffffffffffff168173ffffffffffffffffffffffffffffffffffffffff1614610763576040517f08c379a000000000000000000000000000000000000000000000000000000000815260040161075a90611d02565b60405180910390fd5b61076d828261129f565b5050565b60008061077c610b0a565b905061079d81858561078e8589610a19565b6107989190611d51565b610b12565b600191505092915050565b7f9f2df0fed2c77648de5860a4cc508cd0818c85b8b8a1ab4ceeef8d981c8956a66107d2816111aa565b6107dc8383611381565b505050565b6107eb3382610fdd565b50565b60008060008373ffffffffffffffffffffffffffffffffffffffff1673ffffffffffffffffffffffffffffffffffffffff168152602001908152602001600020549050919050565b60006005600084815260200190815260200160002060000160008373ffffffffffffffffffffffffffffffffffffffff1673ffffffffffffffffffffffffffffffffffffffff16815260200190815260200160002060009054906101000a900460ff16905092915050565b6060600480546108b090611c5f565b80601f01602080910402602001604051908101604052809291908181526020018280546108dc90611c5f565b80156109295780601f106108fe57610100808354040283529160200191610929565b820191906000526020600020905b81548152906001019060200180831161090c57829003601f168201915b5050505050905090565b6000801b81565b600080610945610b0a565b905060006109538286610a19565b905083811015610998576040517f08c379a000000000000000000000000000000000000000000000000000000000815260040161098f90611df7565b60405180910390fd5b6109a58286868403610b12565b60019250505092915050565b6000806109bc610b0a565b90506109c9818585610d67565b600191505092915050565b7f9f2df0fed2c77648de5860a4cc508cd0818c85b8b8a1ab4ceeef8d981c8956a681565b610a0182610690565b610a0a816111aa565b610a14838361129f565b505050565b6000600160008473ffffffffffffffffffffffffffffffffffffffff1673ffffffffffffffffffffffffffffffffffffffff16815260200190815260200160002060008373ffffffffffffffffffffffffffffffffffffffff1673ffffffffffffffffffffffffffffffffffffffff16815260200190815260200160002054905092915050565b60007f01ffc9a7000000000000000000000000000000000000000000000000000000007bffffffffffffffffffffffffffffffffffffffffffffffffffffffff1916827bffffffffffffffffffffffffffffffffffffffffffffffffffffffff1916149050919050565b600033905090565b600073ffffffffffffffffffffffffffffffffffffffff168373ffffffffffffffffffffffffffffffffffffffff1603610b81576040517f08c379a0000000000000000000000000000000000000000000000000000000008152600401610b7890611e89565b60405180910390fd5b600073ffffffffffffffffffffffffffffffffffffffff168273ffffffffffffffffffffffffffffffffffffffff1603610bf0576040517f08c379a0000000000000000000000000000000000000000000000000000000008152600401610be790611f1b565b60405180910390fd5b80600160008573ffffffffffffffffffffffffffffffffffffffff1673ffffffffffffffffffffffffffffffffffffffff16815260200190815260200160002060008473ffffffffffffffffffffffffffffffffffffffff1673ffffffffffffffffffffffffffffffffffffffff168152602001908152602001600020819055508173ffffffffffffffffffffffffffffffffffffffff168373ffffffffffffffffffffffffffffffffffffffff167f8c5be1e5ebec7d5bd14f71427d1e84f3dd0314c0f7b2291e5b200ac8c7c3b92583604051610cce9190611a24565b60405180910390a3505050565b6000610ce78484610a19565b90507fffffffffffffffffffffffffffffffffffffffffffffffffffffffffffffffff8114610d615781811015610d53576040517f08c379a0000000000000000000000000000000000000000000000000000000008152600401610d4a90611f87565b60405180910390fd5b610d608484848403610b12565b5b50505050565b600073ffffffffffffffffffffffffffffffffffffffff168373ffffffffffffffffffffffffffffffffffffffff1603610dd6576040517f08c379a0000000000000000000000000000000000000000000000000000000008152600401610dcd90612019565b60405180910390fd5b600073ffffffffffffffffffffffffffffffffffffffff168273ffffffffffffffffffffffffffffffffffffffff1603610e45576040517f08c379a0000000000000000000000000000000000000000000000000000000008152600401610e3c906120ab565b60405180910390fd5b610e508383836114d7565b60008060008573ffffffffffffffffffffffffffffffffffffffff1673ffffffffffffffffffffffffffffffffffffffff16815260200190815260200160002054905081811015610ed6576040517f08c379a0000000000000000000000000000000000000000000000000000000008152600401610ecd9061213d565b60405180910390fd5b8181036000808673ffffffffffffffffffffffffffffffffffffffff1673ffffffffffffffffffffffffffffffffffffffff16815260200190815260200160002081905550816000808573ffffffffffffffffffffffffffffffffffffffff1673ffffffffffffffffffffffffffffffffffffffff168152602001908152602001600020600082825401925050819055508273ffffffffffffffffffffffffffffffffffffffff168473ffffffffffffffffffffffffffffffffffffffff167fddf252ad1be2c89b69c2b068fc378daa952ba7f163c4a11628f55a4df523b3ef84604051610fc49190611a24565b60405180910390a3610fd78484846114dc565b50505050565b600073ffffffffffffffffffffffffffffffffffffffff168273ffffffffffffffffffffffffffffffffffffffff160361104c576040517f08c379a0000000000000000000000000000000000000000000000000000000008152600401611043906121cf565b60405180910390fd5b611058826000836114d7565b60008060008473ffffffffffffffffffffffffffffffffffffffff1673ffffffffffffffffffffffffffffffffffffffff168152602001908152602001600020549050818110156110de576040517f08c379a00000000000000000000000000000000000000000000000000000000081526004016110d590612261565b60405180910390fd5b8181036000808573ffffffffffffffffffffffffffffffffffffffff1673ffffffffffffffffffffffffffffffffffffffff1681526020019081526020016000208190555081600260008282540392505081905550600073ffffffffffffffffffffffffffffffffffffffff168373ffffffffffffffffffffffffffffffffffffffff167fddf252ad1be2c89b69c2b068fc378daa952ba7f163c4a11628f55a4df523b3ef846040516111919190611a24565b60405180910390a36111a5836000846114dc565b505050565b6111bb816111b6610b0a565b6114e1565b50565b6111c88282610836565b61129b5760016005600084815260200190815260200160002060000160008373ffffffffffffffffffffffffffffffffffffffff1673ffffffffffffffffffffffffffffffffffffffff16815260200190815260200160002060006101000a81548160ff021916908315150217905550611240610b0a565b73ffffffffffffffffffffffffffffffffffffffff168173ffffffffffffffffffffffffffffffffffffffff16837f2f8788117e7eff1d82e926ec794901d17c78024a50270940304540a733656f0d60405160405180910390a45b5050565b6112a98282610836565b1561137d5760006005600084815260200190815260200160002060000160008373ffffffffffffffffffffffffffffffffffffffff1673ffffffffffffffffffffffffffffffffffffffff16815260200190815260200160002060006101000a81548160ff021916908315150217905550611322610b0a565b73ffffffffffffffffffffffffffffffffffffffff168173ffffffffffffffffffffffffffffffffffffffff16837ff6391f5c32d9c69d2a47ea670b442974b53935d1edc7fd64eb21e047a839171b60405160405180910390a45b5050565b600073ffffffffffffffffffffffffffffffffffffffff168273ffffffffffffffffffffffffffffffffffffffff16036113f0576040517f08c379a00000000000000000000000000000000000000000000000000000000081526004016113e7906122cd565b60405180910390fd5b6113fc600083836114d7565b806002600082825461140e9190611d51565b92505081905550806000808473ffffffffffffffffffffffffffffffffffffffff1673ffffffffffffffffffffffffffffffffffffffff168152602001908152602001600020600082825401925050819055508173ffffffffffffffffffffffffffffffffffffffff16600073ffffffffffffffffffffffffffffffffffffffff167fddf252ad1be2c89b69c2b068fc378daa952ba7f163c4a11628f55a4df523b3ef836040516114bf9190611a24565b60405180910390a36114d3600083836114dc565b5050565b505050565b505050565b6114eb8282610836565b611562576114f881611566565b6115068360001c6020611593565b6040516020016115179291906123c1565b6040516020818303038152906040526040517f08c379a0000000000000000000000000000000000000000000000000000000008152600401611559919061191f565b60405180910390fd5b5050565b606061158c8273ffffffffffffffffffffffffffffffffffffffff16601460ff16611593565b9050919050565b6060600060028360026115a691906123fb565b6115b09190611d51565b67ffffffffffffffff8111156115c9576115c861243d565b5b6040519080825280601f01601f1916602001820160405280156115fb5781602001600182028036833780820191505090505b5090507f3000000000000000000000000000000000000000000000000000000000000000816000815181106116335761163261246c565b5b60200101907effffffffffffffffffffffffffffffffffffffffffffffffffffffffffffff1916908160001a9053507f7800000000000000000000000000000000000000000000000000000000000000816001815181106116975761169661246c565b5b60200101907effffffffffffffffffffffffffffffffffffffffffffffffffffffffffffff1916908160001a905350600060018460026116d791906123fb565b6116e19190611d51565b90505b6001811115611781577f3031323334353637383961626364656600000000000000000000000000000000600f8616601081106117235761172261246c565b5b1a60f81b82828151811061173a5761173961246c565b5b60200101907effffffffffffffffffffffffffffffffffffffffffffffffffffffffffffff1916908160001a905350600485901c94508061177a9061249b565b90506116e4565b50600084146117c5576040517f08c379a00000000000000000000000000000000000000000000000000000000081526004016117bc90612510565b60405180910390fd5b8091505092915050565b600080fd5b60007fffffffff0000000000000000000000000000000000000000000000000000000082169050919050565b611809816117d4565b811461181457600080fd5b50565b60008135905061182681611800565b92915050565b600060208284031215611842576118416117cf565b5b600061185084828501611817565b91505092915050565b60008115159050919050565b61186e81611859565b82525050565b60006020820190506118896000830184611865565b92915050565b600081519050919050565b600082825260208201905092915050565b60005b838110156118c95780820151818401526020810190506118ae565b60008484015250505050565b6000601f19601f8301169050919050565b60006118f18261188f565b6118fb818561189a565b935061190b8185602086016118ab565b611914816118d5565b840191505092915050565b6000602082019050818103600083015261193981846118e6565b905092915050565b600073ffffffffffffffffffffffffffffffffffffffff82169050919050565b600061196c82611941565b9050919050565b61197c81611961565b811461198757600080fd5b50565b60008135905061199981611973565b92915050565b6000819050919050565b6119b28161199f565b81146119bd57600080fd5b50565b6000813590506119cf816119a9565b92915050565b600080604083850312156119ec576119eb6117cf565b5b60006119fa8582860161198a565b9250506020611a0b858286016119c0565b9150509250929050565b611a1e8161199f565b82525050565b6000602082019050611a396000830184611a15565b92915050565b600080600060608486031215611a5857611a576117cf565b5b6000611a668682870161198a565b9350506020611a778682870161198a565b9250506040611a88868287016119c0565b9150509250925092565b6000819050919050565b611aa581611a92565b8114611ab057600080fd5b50565b600081359050611ac281611a9c565b92915050565b600060208284031215611ade57611add6117cf565b5b6000611aec84828501611ab3565b91505092915050565b611afe81611a92565b82525050565b6000602082019050611b196000830184611af5565b92915050565b60008060408385031215611b3657611b356117cf565b5b6000611b4485828601611ab3565b9250506020611b558582860161198a565b9150509250929050565b600060ff82169050919050565b611b7581611b5f565b82525050565b6000602082019050611b906000830184611b6c565b92915050565b600060208284031215611bac57611bab6117cf565b5b6000611bba848285016119c0565b91505092915050565b600060208284031215611bd957611bd86117cf565b5b6000611be78482850161198a565b91505092915050565b60008060408385031215611c0757611c066117cf565b5b6000611c158582860161198a565b9250506020611c268582860161198a565b9150509250929050565b7f4e487b7100000000000000000000000000000000000000000000000000000000600052602260045260246000fd5b60006002820490506001821680611c7757607f821691505b602082108103611c8a57611c89611c30565b5b50919050565b7f416363657373436f6e74726f6c3a2063616e206f6e6c792072656e6f756e636560008201527f20726f6c657320666f722073656c660000000000000000000000000000000000602082015250565b6000611cec602f8361189a565b9150611cf782611c90565b604082019050919050565b60006020820190508181036000830152611d1b81611cdf565b9050919050565b7f4e487b7100000000000000000000000000000000000000000000000000000000600052601160045260246000fd5b6000611d5c8261199f565b9150611d678361199f565b9250828201905080821115611d7f57611d7e611d22565b5b92915050565b7f45524332303a2064656372656173656420616c6c6f77616e63652062656c6f7760008201527f207a65726f000000000000000000000000000000000000000000000000000000602082015250565b6000611de160258361189a565b9150611dec82611d85565b604082019050919050565b60006020820190508181036000830152611e1081611dd4565b9050919050565b7f45524332303a20617070726f76652066726f6d20746865207a65726f2061646460008201527f7265737300000000000000000000000000000000000000000000000000000000602082015250565b6000611e7360248361189a565b9150611e7e82611e17565b604082019050919050565b60006020820190508181036000830152611ea281611e66565b9050919050565b7f45524332303a20617070726f766520746f20746865207a65726f20616464726560008201527f7373000000000000000000000000000000000000000000000000000000000000602082015250565b6000611f0560228361189a565b9150611f1082611ea9565b604082019050919050565b60006020820190508181036000830152611f3481611ef8565b9050919050565b7f45524332303a20696e73756666696369656e7420616c6c6f77616e6365000000600082015250565b6000611f71601d8361189a565b9150611f7c82611f3b565b602082019050919050565b60006020820190508181036000830152611fa081611f64565b9050919050565b7f45524332303a207472616e736665722066726f6d20746865207a65726f20616460008201527f6472657373000000000000000000000000000000000000000000000000000000602082015250565b600061200360258361189a565b915061200e82611fa7565b604082019050919050565b6000602082019050818103600083015261203281611ff6565b9050919050565b7f45524332303a207472616e7366657220746f20746865207a65726f206164647260008201527f6573730000000000000000000000000000000000000000000000000000000000602082015250565b600061209560238361189a565b91506120a082612039565b604082019050919050565b600060208201905081810360008301526120c481612088565b9050919050565b7f45524332303a207472616e7366657220616d6f756e742065786365656473206260008201527f616c616e63650000000000000000000000000000000000000000000000000000602082015250565b600061212760268361189a565b9150612132826120cb565b604082019050919050565b600060208201905081810360008301526121568161211a565b9050919050565b7f45524332303a206275726e2066726f6d20746865207a65726f2061646472657360008201527f7300000000000000000000000000000000000000000000000000000000000000602082015250565b60006121b960218361189a565b91506121c48261215d565b604082019050919050565b600060208201905081810360008301526121e8816121ac565b9050919050565b7f45524332303a206275726e20616d6f756e7420657863656564732062616c616e60008201527f6365000000000000000000000000000000000000000000000000000000000000602082015250565b600061224b60228361189a565b9150612256826121ef565b604082019050919050565b6000602082019050818103600083015261227a8161223e565b9050919050565b7f45524332303a206d696e7420746f20746865207a65726f206164647265737300600082015250565b60006122b7601f8361189a565b91506122c282612281565b602082019050919050565b600060208201905081810360008301526122e6816122aa565b9050919050565b600081905092915050565b7f416363657373436f6e74726f6c3a206163636f756e7420000000000000000000600082015250565b600061232e6017836122ed565b9150612339826122f8565b601782019050919050565b600061234f8261188f565b61235981856122ed565b93506123698185602086016118ab565b80840191505092915050565b7f206973206d697373696e6720726f6c6520000000000000000000000000000000600082015250565b60006123ab6011836122ed565b91506123b682612375565b601182019050919050565b60006123cc82612321565b91506123d88285612344565b91506123e38261239e565b91506123ef8284612344565b91508190509392505050565b60006124068261199f565b91506124118361199f565b925082820261241f8161199f565b9150828204841483151761243657612435611d22565b5b5092915050565b7f4e487b7100000000000000000000000000000000000000000000000000000000600052604160045260246000fd5b7f4e487b7100000000000000000000000000000000000000000000000000000000600052603260045260246000fd5b60006124a68261199f565b9150600082036124b9576124b8611d22565b5b600182039050919050565b7f537472696e67733a20686578206c656e67746820696e73756666696369656e74600082015250565b60006124fa60208361189a565b9150612505826124c4565b602082019050919050565b60006020820190508181036000830152612529816124ed565b905091905056fea2646970667358221220dcc599fd8831c9f513c13f4aa0002bffcb705616b79843b97c3ba4402cd753db64736f6c6343000812003360806040523480156200001157600080fd5b50604051620013b4380380620013b4833981810160405281019062000037919062000185565b600160008190555082600160006101000a81548173ffffffffffffffffffffffffffffffffffffffff021916908373ffffffffffffffffffffffffffffffffffffffff16021790555081600260006101000a81548173ffffffffffffffffffffffffffffffffffffffff021916908373ffffffffffffffffffffffffffffffffffffffff16021790555080600360006101000a81548173ffffffffffffffffffffffffffffffffffffffff021916908373ffffffffffffffffffffffffffffffffffffffff16021790555060006004819055506000600581905550505050620001e1565b600080fd5b600073ffffffffffffffffffffffffffffffffffffffff82169050919050565b60006200014d8262000120565b9050919050565b6200015f8162000140565b81146200016b57600080fd5b50565b6000815190506200017f8162000154565b92915050565b600080600060608486031215620001a157620001a06200011b565b5b6000620001b1868287016200016e565b9350506020620001c4868287016200016e565b9250506040620001d7868287016200016e565b9150509250925092565b6111c380620001f16000396000f3fe6080604052600436106100a05760003560e01c8063768713f511610064578063768713f5146101955780637824407f146101d257806398d5fdca146101fd578063a6f2ae3a14610228578063e4849b3214610232578063fc0c546a1461025b576100a7565b806302d05d3f146100ac57806312065fe0146100d75780631fb87f39146101025780634bde38c81461013f5780634e6630b01461016a576100a7565b366100a757005b600080fd5b3480156100b857600080fd5b506100c1610286565b6040516100ce9190610ab2565b60405180910390f35b3480156100e357600080fd5b506100ec6102ac565b6040516100f99190610ae6565b60405180910390f35b34801561010e57600080fd5b5061012960048036038101906101249190610b32565b6102b4565b6040516101369190610ae6565b60405180910390f35b34801561014b57600080fd5b50610154610364565b6040516101619190610ab2565b60405180910390f35b34801561017657600080fd5b5061017f61038a565b60405161018c9190610ae6565b60405180910390f35b3480156101a157600080fd5b506101bc60048036038101906101b79190610b32565b610390565b6040516101c99190610ae6565b60405180910390f35b3480156101de57600080fd5b506101e7610413565b6040516101f49190610ae6565b60405180910390f35b34801561020957600080fd5b50610212610419565b60405161021f9190610ae6565b60405180910390f35b610230610456565b005b34801561023e57600080fd5b5061025960048036038101906102549190610b32565b61065d565b005b34801561026757600080fd5b506102706109f2565b60405161027d9190610bbe565b60405180910390f35b600260009054906101000a900473ffffffffffffffffffffffffffffffffffffffff1681565b600047905090565b60008082036102c6576000905061035f565b60006102d0610419565b9050600081846102e09190610c37565b6005546102ed9190610c68565b670de0b6b3a7640000856004546103049190610c68565b61030e9190610c9c565b6103189190610c37565b9050600082826103289190610cde565b905060006002838561033a9190610c68565b6103449190610c37565b9050600081876103549190610c37565b905080955050505050505b919050565b600360009054906101000a900473ffffffffffffffffffffffffffffffffffffffff1681565b60045481565b60008082036103a2576000905061040e565b6005548211156103b5576000905061040e565b6000826005546103c59190610cde565b905060008082116103d75760006103f3565b600554600454836103e89190610c9c565b6103f29190610c37565b5b90506000816004546104059190610cde565b90508093505050505b919050565b60055481565b6000806005540361042d5760009050610453565b600554670de0b6b3a76400006004546104469190610c9c565b6104509190610c37565b90505b90565b61045e610a18565b600034116104a1576040517f08c379a000000000000000000000000000000000000000000000000000000000815260040161049890610d6f565b60405180910390fd5b60006104ac346102b4565b9050600081116104f1576040517f08c379a00000000000000000000000000000000000000000000000000000000081526004016104e890610ddb565b60405180910390fd5b34600460008282546105039190610c68565b92505081905550806005600082825461051c9190610c68565b92505081905550600160009054906101000a900473ffffffffffffffffffffffffffffffffffffffff1673ffffffffffffffffffffffffffffffffffffffff1663a9059cbb33836040518363ffffffff1660e01b8152600401610580929190610dfb565b6020604051808303816000875af115801561059f573d6000803e3d6000fd5b505050506040513d601f19601f820116820180604052508101906105c39190610e5c565b610602576040517f08c379a00000000000000000000000000000000000000000000000000000000081526004016105f990610ed5565b60405180910390fd5b3373ffffffffffffffffffffffffffffffffffffffff167f1cbc5ab135991bd2b6a4b034a04aa2aa086dac1371cb9b16b8b5e2ed6b036bed348360405161064a929190610ef5565b60405180910390a25061065b610a67565b565b610665610a18565b600081116106a8576040517f08c379a000000000000000000000000000000000000000000000000000000000815260040161069f90610f6a565b60405180910390fd5b80600160009054906101000a900473ffffffffffffffffffffffffffffffffffffffff1673ffffffffffffffffffffffffffffffffffffffff166370a08231336040518263ffffffff1660e01b81526004016107049190610ab2565b602060405180830381865afa158015610721573d6000803e3d6000fd5b505050506040513d601f19601f820116820180604052508101906107459190610f9f565b1015610786576040517f08c379a000000000000000000000000000000000000000000000000000000000815260040161077d90611018565b60405180910390fd5b600061079182610390565b9050600081116107d6576040517f08c379a00000000000000000000000000000000000000000000000000000000081526004016107cd90610ddb565b60405180910390fd5b600160009054906101000a900473ffffffffffffffffffffffffffffffffffffffff1673ffffffffffffffffffffffffffffffffffffffff166323b872dd3330856040518463ffffffff1660e01b815260040161083593929190611038565b6020604051808303816000875af1158015610854573d6000803e3d6000fd5b505050506040513d601f19601f820116820180604052508101906108789190610e5c565b6108b7576040517f08c379a00000000000000000000000000000000000000000000000000000000081526004016108ae90610ed5565b60405180910390fd5b80600460008282546108c99190610cde565b9250508190555081600560008282546108e29190610cde565b9250508190555060003373ffffffffffffffffffffffffffffffffffffffff168260405161090f906110a0565b60006040518083038185875af1925050503d806000811461094c576040519150601f19603f3d011682016040523d82523d6000602084013e610951565b606091505b5050905080610995576040517f08c379a000000000000000000000000000000000000000000000000000000000815260040161098c90611101565b60405180910390fd5b3373ffffffffffffffffffffffffffffffffffffffff167fed7a144fad14804d5c249145e3e0e2b63a9eb455b76aee5bc92d711e9bba3e4a84846040516109dd929190610ef5565b60405180910390a250506109ef610a67565b50565b600160009054906101000a900473ffffffffffffffffffffffffffffffffffffffff1681565b600260005403610a5d576040517f08c379a0000000000000000000000000000000000000000000000000000000008152600401610a549061116d565b60405180910390fd5b6002600081905550565b6001600081905550565b600073ffffffffffffffffffffffffffffffffffffffff82169050919050565b6000610a9c82610a71565b9050919050565b610aac81610a91565b82525050565b6000602082019050610ac76000830184610aa3565b92915050565b6000819050919050565b610ae081610acd565b82525050565b6000602082019050610afb6000830184610ad7565b92915050565b600080fd5b610b0f81610acd565b8114610b1a57600080fd5b50565b600081359050610b2c81610b06565b92915050565b600060208284031215610b4857610b47610b01565b5b6000610b5684828501610b1d565b91505092915050565b6000819050919050565b6000610b84610b7f610b7a84610a71565b610b5f565b610a71565b9050919050565b6000610b9682610b69565b9050919050565b6000610ba882610b8b565b9050919050565b610bb881610b9d565b82525050565b6000602082019050610bd36000830184610baf565b92915050565b7f4e487b7100000000000000000000000000000000000000000000000000000000600052601260045260246000fd5b7f4e487b7100000000000000000000000000000000000000000000000000000000600052601160045260246000fd5b6000610c4282610acd565b9150610c4d83610acd565b925082610c5d57610c5c610bd9565b5b828204905092915050565b6000610c7382610acd565b9150610c7e83610acd565b9250828201905080821115610c9657610c95610c08565b5b92915050565b6000610ca782610acd565b9150610cb283610acd565b9250828202610cc081610acd565b91508282048414831517610cd757610cd6610c08565b5b5092915050565b6000610ce982610acd565b9150610cf483610acd565b9250828203905081811115610d0c57610d0b610c08565b5b92915050565b600082825260208201905092915050565b7f4554482072657175697265640000000000000000000000000000000000000000600082015250565b6000610d59600c83610d12565b9150610d6482610d23565b602082019050919050565b60006020820190508181036000830152610d8881610d4c565b9050919050565b7f496e73756666696369656e74206c697175696469747900000000000000000000600082015250565b6000610dc5601683610d12565b9150610dd082610d8f565b602082019050919050565b60006020820190508181036000830152610df481610db8565b9050919050565b6000604082019050610e106000830185610aa3565b610e1d6020830184610ad7565b9392505050565b60008115159050919050565b610e3981610e24565b8114610e4457600080fd5b50565b600081519050610e5681610e30565b92915050565b600060208284031215610e7257610e71610b01565b5b6000610e8084828501610e47565b91505092915050565b7f546f6b656e207472616e73666572206661696c65640000000000000000000000600082015250565b6000610ebf601583610d12565b9150610eca82610e89565b602082019050919050565b60006020820190508181036000830152610eee81610eb2565b9050919050565b6000604082019050610f0a6000830185610ad7565b610f176020830184610ad7565b9392505050565b7f546f6b656e20616d6f756e742072657175697265640000000000000000000000600082015250565b6000610f54601583610d12565b9150610f5f82610f1e565b602082019050919050565b60006020820190508181036000830152610f8381610f47565b9050919050565b600081519050610f9981610b06565b92915050565b600060208284031215610fb557610fb4610b01565b5b6000610fc384828501610f8a565b91505092915050565b7f496e73756666696369656e742062616c616e6365000000000000000000000000600082015250565b6000611002601483610d12565b915061100d82610fcc565b602082019050919050565b6000602082019050818103600083015261103181610ff5565b9050919050565b600060608201905061104d6000830186610aa3565b61105a6020830185610aa3565b6110676040830184610ad7565b949350505050565b600081905092915050565b50565b600061108a60008361106f565b91506110958261107a565b600082019050919050565b60006110ab8261107d565b9150819050919050565b7f455448207472616e73666572206661696c656400000000000000000000000000600082015250565b60006110eb601383610d12565b91506110f6826110b5565b602082019050919050565b6000602082019050818103600083015261111a816110de565b9050919050565b7f5265656e7472616e637947756172643a207265656e7472616e742063616c6c00600082015250565b6000611157601f83610d12565b915061116282611121565b602082019050919050565b600060208201905081810360008301526111868161114a565b905091905056fea2646970667358221220bc583f21839d45818f81cd2d62a13e56a4e6abd6530f3907a9b5bf0b12e052be64736f6c63430008120033a2646970667358221220aad7d90006a270239dbb75af77d7aec8fcb62e89034e062b75bdb6547993514e64736f6c63430008120033",
  "linkReferences": {},
  "deployedLinkReferences": {}
}